:020000040800F2
:1000000090060020D5000008C5190008DD1800087A
:1000100000000000000000000000000000000000E0
:100020000000000000000000000000000F1A00089F
:1000300000000000000000000D1A0008111A00085E
:10004000E7000008E7000008E7000008E7000008F4
:10005000E7000008E7000008E7000008E7000008E4
:10006000E7000008E7000008E7000008E7000008D4
:10007000E7000008E7000008E7000008E7000008C4
:10008000E7000008E7000008E7000008E7000008B4
:10009000E7000008E7000008E7000008E7000008A4
:1000A000E7000008E7000008E7000008E700000894
:1000B000E7000008E7000008E7000008E700000884
:1000C0000348854600F0E0FA00480047592D000833
:1000D000900600200448804704480047FEE7FEE7FA
:1000E000FEE7FEE7FEE7FEE76D1A0008C100000824
:1000F00030B50B46014600202022012409E00D46C0
:10010000D5409D4205D31D469540491B2546954047
:1001100040191546521E002DF1DC30BD10B5202AC5
:1001200004DB0846203AD040002110BD0B46D340E6
:10013000D0402024A21A91400843194610BD03461E
:100140000B439B0703D009E008C9121F08C0042A0B
:10015000FAD203E00B780370401C491C521EF9D2FE
:100160007047D2B201E00270401C491EFBD27047BA
:100170000022F6E710B513460A4604461946FFF773
:10018000F0FF204610BD421C0178401C0029FBD125
:10019000801A704730B504460020034600E05B1C1F
:1001A000934203D2E05CCD5C401BF8D030BD000030
:1001B00070B5CD0F4A0009030123090B1B05194334
:1001C0000B4BED070024520D9A4201DA002070BD5E
:1001D000074B34339A4203DC9A1AFFF79FFF02E081
:1001E0000449511888402C43F1D0404270BD0000B2
:1001F000FF030000CDFBFFFFF0B51FB40646002053
:1002000082B005464024019100901BE001992246EE
:100210000F463046FFF782FF049A059B801A9941EA
:1002200010D310461946224600F040FA361A8F4184
:100230000197224601200021009F00F037FA38186C
:100240004D4100902046641E0028DFDC019B009891
:100250002946324607B0F0BD0FB400B589B00CA9ED
:1002600000910B990023CB60204B214A0693079203
:10027000042201921F4A02921F4A089202466B46CC
:10028000002000F0CCFA09B008BC04B0184770B5E3
:1002900086B006460020C0430190002015460C465B
:1002A0000091029104903246694604A8FFF7D4FFFA
:1002B000024604982118002D05D0002801D00846D8
:1002C00000E020462860049800280DD0002A02DDB6
:1002D0000098884208D0081B019000943246694675
:1002E000029404A8FFF7B8FF06B070BD750A0008B5
:1002F000950A0008FFFFFF7FF3060008F0B50746E8
:100300000846584087B0C00F049048000E46590078
:1003100040084908BC1A884105D2384631461E4675
:1003200017460B4602465800400810434CD0300D8B
:10033000039040055900400D490D0590401A029068
:10034000402872DA18030121000B090508430190C7
:1003500004980092002805D001995242002088415B
:1003600000920190029840210A1A0199009800F029
:100370009DF905460C466B4607CB00F0A7F9C0195E
:100380007141039A0E0D0023D71756401A467A4042
:10039000164344D0049A002A2DD0029A012A039AC7
:1003A00015DC1205C01A914101263605001C714169
:1003B000D20F059ED2070093019202962A46234649
:1003C00000F087FB07B0F0BD38463146FAE7160566
:1003D000224A0F46B218C01AB74101210905001C74
:1003E0004F4100187F41114618187941E20F104320
:1003F0006D19644113E0E2076D0815436408C207F4
:100400001443039A01261205C01A91413605001CB7
:100410007141CE07400830434908C01851412A466F
:10042000234600F049FBCDE7FFE704980122400096
:10043000C117121A00238B4104983146C417381A89
:10044000A141EEE730B40124E407634030BC55E736
:1004500030B40124E407614030BC4FE70000E0FF06
:10046000F0B51FB488B00B99099800244840099949
:10047000C00F490049080991C0070B990090490035
:1004800049080B9109990898A64608431CD00B9976
:100490000A98084318D0099801244000420D4800EA
:1004A000410D099824050003000B204309900B9887
:1004B0000003000B20430B9050181C4940180022E9
:1004C00001901446104605E0002001460DB0F0BD35
:1004D000032801DA034600E003239C46C11A0AAE52
:1004E0000AE05F0008ADED5B4F00F75B7D4300273E
:1004F000AA187C41491C5B1E6145F2DD410004AB3A
:100500005A522104120C0A43240C401C0828DFDB39
:10051000019802900099704601910090059B049A01
:100520000799069800F0D5FAD0E700000DFCFFFF10
:10053000F0B50C465C4085B0E40FE40703944C0032
:100540000026640859009446490802460296224350
:1005500021D062460A431ED06200570D4A000E03A6
:100560002303550D012402462C492405781B1B0B3F
:10057000360B401823432643614600901C46501A10
:10058000B44103D30098401C009002E092180098F8
:100590005B41002803DA0020014605B0F0BD0020D1
:1005A000012109050746864611E064461D46141BD5
:1005B000B54106D36546521BB341744607430C430D
:1005C000A646CD0740084908284392185B410546D6
:1005D0000D43EAD11046184313D0604619465040E7
:1005E0007140084306D06046101AB34106D201227A
:1005F000002306E000220123DB0702E00122D243B0
:100600005310009874460105381C6141029C039DFB
:100610000019694100F050FABFE70000FD03000037
:100620004A0009030123090B1B0519430A4B10B5A6
:10063000520D9A4202DA0020014610BD064B3433B7
:100640009A4203DC9A1AFFF769FD10BD034BD218DA
:1006500000F02CF810BD0000FF030000CDFBFFFFF1
:1006600010B5002904DB0124E40740428C412146F7
:10067000002B04DB1C460123DB075242A3419942B5
:1006800000D1904210BD0000064C0125064E05E049
:10069000E36807CC2B430C3C98471034B442F7D3A3
:1006A000FFF712FD083900082839000810B5202A84
:1006B00004DB0146203A9140002010BD91402023E8
:1006C0009C1A0346E3401943904010BD10B5202A00
:1006D00006DBCB170846203A1041C1170B4306E052
:1006E0000B461341D0402024A21A914008431946DA
:1006F00010BD10B50F21C0B2490200F079FA10BD4B
:10070000FFB5087889B01546FF2805D0491C2D286B
:1007100004D00022002407E000240BE00122F9E7C6
:100720000A235C430419491C0878FF28F8D1002AE1
:1007300000D06442002004902A7801462D2A01D07E
:100740002B2A0FD16D1C2D2A02D00022049209E021
:100750000122FBE700260A2233466D1C00F00BFA4B
:10076000381871412F78FF2FF4D10C9AA2180692F5
:1007700002460A4304D0FF23069A9133DA4205DA8F
:10078000002109980A4606C00DB0F0BD0024B74A02
:10079000B54D2646079200F03DFA02900698039167
:1007A000002801DA474200E0074639050020AF4A39
:1007B000001C51410191009012E0F80707D0224639
:1007C0002B4630460799FFF74BFE06460791224617
:1007D0002B4610461946FFF743FE04460D467F1090
:1007E000002FEAD10698019B0028009A03990298ED
:1007F00006DAFFF79DFE3246079BFFF799FE05E0FC
:10080000FFF72EFE3246079BFFF72AFE049A002AC6
:1008100002D00122D2075140099A03C2B4E7FFB5C2
:1008200091B0002009900025ED432E209E685C6861
:100830001F460190B9696D1C129888470090396A6B
:1008400088470028F6D10098401C0AD00D20C0012E
:100850008443002E12DD00982B2809D02D280DD1BD
:1008600003E00020C04315B0F0BD01208002044326
:10087000B9696D1C12988847761E009003A960051F
:1008800001D52D2000E02B206A461073491C0CA8CE
:100890000F9102900AE0B9696D1C12988847009088
:1008A0000120400204431398761E0560002E02DDED
:1008B00000983028EFD001990098884246D18020D6
:1008C000044308E00998401E0990012040020443B7
:1008D0001399681C0860B9696D1C761E12988847C8
:1008E00000903028EED031E00199884205D12006F1
:1008F00003D480200443761E1EE0009801F05EFBC6
:10090000002826D001204002044307A90F98033194
:10091000761E88420BD200980F99303808700F98D5
:10092000401C0F90200607D50998401E03E02006C2
:1009300002D40998401C0990A00502D51399681C9F
:100940000860B9696D1C129888470090002ECBDCB6
:1009500059E0002E57DD0098652801D0452852D176
:10096000A00550D5032000028443B9696D1C761E92
:10097000129888470090002E0CDD2B2804D02D28DB
:1009800008D1FF2001300443B9696D1C12988847D3
:10099000761E0090E00501D52D2100E02B21029864
:1009A00001700298401C0290019025E00120400255
:1009B00004430EA902980131761E88420ED2009897
:1009C000029930380006000E087003D10299019890
:1009D00081420AD90298401C029006E0E00501D548
:1009E000234801E0224840420990B9696D1C1298E1
:1009F0008847009013980560002E04DD009801F0F0
:100A0000DDFA0028D2D1F969129888470F99FF20A2
:100A10000870029903AA087000200A900B900CA994
:100A20000AA8099BFFF76CFEA00502D40120C04371
:100A300019E72420044209D0E00713D138680B9A43
:100A40000A99031D3B60006806C00BE00B990A98E9
:100A500000F0EEF80146E00704D13868021D3A6064
:100A6000006801602846FEE6000014400000F03FE8
:100A7000F1D8FFFF4268002A08D001680B78491CB2
:100A8000002B03D0521E06C0184670470121C160DA
:100A9000881E70474268002A0BD0C3680168002B8B
:100AA00007D183688B4204D0491E521C06C0002027
:100AB00070470020C043704710B5002B08DA0024AF
:100AC000401C614192185B411A4301D1400840002B
:100AD00010BDF0B51FB482B005460C0003D0084627
:100AE00001F08CF902E001F089F920300246009013
:100AF00021462846FFF7DAFD049B059A04460F4677
:100B000018431143084314D0184610431BD00098D3
:100B100040210A1A18460599FFF700FB05460E46C4
:100B2000009A05990498FFF7C1FD084305D00120FC
:100B300004E02046394607B0F0BD0020C117054348
:100B40000E432C43374300990E986305401A7905EC
:100B5000E40A00220C43FD0A0A3002D500200146B7
:100B6000E9E70105101969410C9C0D9D00196941C7
:100B7000FFF7A2FFDFE7F0B51FB486B000200090BA
:100B8000019002900698069980B204900798090C8B
:100B900002040014114307900027089D099806914C
:100BA0003E463C4603900398A9B20204000C039011
:100BB00004982D0C1543484300212246FFF776FD8B
:100BC000C719714110340E46402CECDB3846029AAE
:100BD000FFF76CFD009A019B801800905941029824
:100BE0000191103002904028CCDB00980BB0F0BD92
:100BF0007F2801D9002207E0054B42089A5CC00714
:100C000000D112091207120F0120904008407047CE
:100C1000483700080EB5054A02920022009213469A
:100C20000192FFF756FF03B000BD0000330400003F
:100C3000CB0FDB07490010B5490802460A4307D02D
:100C40000A0D07240903E401090B121B002A01DC29
:100C5000002010BDC900440F0C43C100E018D205AC
:100C6000801800F001F810BD002904DA401C49008A
:100C700001D140084000704770B40024050C05D134
:100C80001024000402D1002921D01124050E01D125
:100C900000020834050F01D10001241D850F01D188
:100CA0008000A41C002801DB4000641C002908D03F
:100CB00020252E1B0D46F540A14000D001212943DF
:100CC000084301061B1B000ADB1D02D5002070BC77
:100CD0007047DB05181880180029F8DA401C490015
:100CE000F5D170BC4008400070470000F8B5002303
:100CF00093E0224601249C40A44622407ED04C68CA
:100D0000022C01D0122C0CD1DC08A40027183C6A5C
:100D10005D07ED0E0F26AE40B4430E69AE4026438C
:100D20003E6205685E000324B4400F79A543BF0707
:100D3000BF0FB7402F4307604D68012D05D0022D2E
:100D400003D0112D01D0122D0ED18568CF68A54397
:100D5000B7402F43876047686546AF430D79ED067E
:100D6000ED0F9D403D434560C568A5438C68B44088
:100D70002C43C4604C68E4004ED52B4CA569012679
:100D80003543A561A4699D0834400094274CAD000B
:100D90002F19BC689D072E0F0F25B540AC430925C0
:100DA000ED06A84201D1002514E0214DA84201D151
:100DB00001250FE01F4DA84201D102250AE01E4D7A
:100DC000A84201D1032505E01C4DA84201D104250C
:100DD00000E00525B5402543BD60194C25684E68E7
:100DE0009543F60300D51543256065684E68954325
:100DF000B60300D515436560A56800E00CE04E68B9
:100E00009543F60200D51543A560E5684E68954305
:100E1000B60200D51543E5605B1C0A681446DA404B
:100E200000D066E7F8BD000000100240000001405D
:100E30000004004800080048000C0048001000486A
:100E40000004014042694A4042617047002A01D0D3
:100E500081617047816270470148006870470000F7
:100E60009400002002480168491C0160704700009E
:100E70009400002010B5064801681022114301605B
:100E8000002000F007F800F017F8002010BD000067
:100E90000020024010B5044600F060F97D21C90031
:100EA000FFF726F900F0A0FB00222146501E00F0BB
:100EB00017F8002010BD000008B50848816901221C
:100EC00011438161816911400091C26901040A43A3
:100ED000C261C0690840009008BD000000100240D7
:100EE00010B500F071FD10BDF8B504460068434D23
:100EF000C00352D5E8690026C00007D4E969280478
:100F00000143E961E9690140012600913C4801681B
:100F1000C90510D40168821511430160FFF79CFFD9
:100F2000074604E0FFF798FFC01B642824D8344824
:100F30000068C005F6D5286A03273F02384020D054
:100F40006168394081421CD0286A2A6AB84301216D
:100F500009040A432A622A6A8A432A622862C0076D
:100F60000FD0FFF779FF009008E0FFF775FF0099B9
:100F7000411A2448814201D90320F8BD286A80071C
:100F8000F3D5286A6168B84308432862002E04D06C
:100F9000E869012109078843E8612078C00705D086
:100FA000286BA168800880000843286320788007A8
:100FB00006D5286B032109048843E16808432863A8
:100FC0002078800605D5286B1021884321690843C5
:100FD00028632068800305D5286B80218843A16998
:100FE000084328632088400505D5286B40218843A5
:100FF0006169084328630020F8BD0000001002402A
:101000000070004088130000F8B505464E480E46B3
:101010000068C007C00FB0420AD24B4801684908B7
:101020004900314301600068C007C00FB04270D171
:101030002878464C800705D56068F0218843A96868
:10104000084360602878C00753D06868012817D02B
:10105000022818D0032819D021688907002958DAF6
:1010600061688908890001436160FFF7F5FE6968DE
:101070000746012913D002291DD0032927D034E0C7
:1010800021688903EAE721688901E7E7616BC90301
:10109000E4E7FFF7E1FEC11B2D48814223D86068D9
:1010A0000007800F0128F4D123E0FFF7D5FEC11B14
:1010B0002748814217D860680007800F0228F4D1C2
:1010C00017E0FFF7C9FEC11B214881420BD86068B9
:1010D0000007800F0328F4D10BE0FFF7BDFEC11B12
:1010E0001B48814201D90320F8BD60680007800FCA
:1010F000F3D115480168C907C90FB1420BD901687E
:1011000049084900314301600068C007C00FB04280
:1011100001D00120F8BD2878400706D56068072176
:1011200009028843E9680843606000F02DF86168AF
:10113000084A0906090F515CC840074908600020A9
:10114000FFF7A8FE0020F8BD00200240001002407A
:10115000881300003037000898000020014800681C
:10116000704700009800002004480549006849685D
:10117000044A4905490F515CC84070479800002057
:10118000001002404037000830B516A30FCB89B0DD
:101190006C460FC417A30FCB0FC41A494A680C2022
:1011A000144604401848042C05D0184B082C04D0D1
:1011B0000C2C00D1184609B030BD9402240F6D46A6
:1011C0002C5DC96A04AD0907090FD203695C920F4F
:1011D000022A02D0032A00D11846FEF789FF604395
:1011E000E9E7000002030405060708090A0B0C0DD5
:1011F0000E0F10100102030405060708090A0B0C64
:101200000D0E0F100010024000127A00006CDC027C
:10121000FEB504460078F04EF04DC00748D068682F
:101220000007800F01281FD068680007800F022880
:1012300004D16868C003800F022815D061680129B5
:1012400019D001208004002901D0052917D0296870
:10125000B1432960296881432960606800281BD058
:10126000FFF7FAFD074613E02868800320D5606881
:10127000002876D01CE0286830432860EDE7296814
:1012800001432960F7E7FFF7E7FDC01B642869D831
:1012900028688003F7D50BE0FFF7DEFD074604E082
:1012A000FFF7DAFDC01B6428F1D828688003F7D463
:1012B000207880073ED568680007800F14D06868E2
:1012C0000007800F022804D16868C003800F01283E
:1012D0000AD0E068002828681DD001210843286052
:1012E000FFF7BAFD07460BE0286880070BD5E068DA
:1012F000012836D107E0FFF7AFFDC01B0228C6D892
:1013000028688007F7D52868F82188432169C90033
:10131000084328600EE0400840002860FFF79CFD6D
:10132000074604E0FFF798FDC01B0228AFD82868E5
:101330008007F7D42078000724D5E0690028686A80
:1013400011D0012108436862FFF786FD074604E0DB
:10135000FFF782FDC01B022899D8686A8007F7D57D
:1013600010E036E1D1E0400840006862FFF774FD0C
:10137000074604E0FFF770FDC01B022887D8686AA3
:101380008007F7D4207804274007002861DA00207E
:101390000190E869C00008D4E969B8060143E96131
:1013A000E96901400120009101908D480168C9055B
:1013B00011D40168821511430160FFF74DFD0090C3
:1013C00005E0FFF749FD0099401A642897D8844842
:1013D0000068C005F5D5A06801280AD0002801D012
:1013E000052811D0286A400840002862286AB843BE
:1013F00002E0286A012108432862A068002812D070
:10140000FFF72AFD00900AE0286A38432862F0E7D7
:10141000FFF722FD0099411A7248814275D8286A67
:101420008007F5D50DE0FFF717FD009006E0FFF708
:1014300013FD0099411A6B48814266D8286A8007DB
:10144000F5D40198002804D0E96901200007814300
:10145000E9612078C00635D5606901280CD0401DAF
:10146000686B24D038436863686B40084000686349
:10147000FFF7F2FC074622E0686B38436863686B4D
:10148000012108436863FFF7E7FC074604E0FFF724
:10149000E3FCC01B022838D8686B8007F7D5686B5F
:1014A000F8218843A169C900084368630AE0B8438A
:1014B0006863F4E7FFF7D0FCC01B022825D8686BEF
:1014C0008007F7D42078800637D568680007800F3A
:1014D000032813D068680007800F022804D16868C9
:1014E000C003800F032809D0206A0028686B16D03B
:1014F00030436863FFF7B0FC06460CE0686BC0033E
:101500001BD5206A012864D117E05BE0FFF7A4FC3B
:10151000801B022856D8686BC003F7D50DE0B04396
:101520006863FFF799FC064604E0FFF795FC801B13
:10153000022847D8686BC003F7D4606A002846D0F9
:1015400069680907890F022943D001263606022857
:10155000286805D0B0432860FFF77EFC044633E0DE
:10156000B0432860FFF778FC074604E0FFF774FCFF
:10157000C01B022826D828688001F7D4E86A216BAE
:10158000000900010843E862A16AE06A084369684B
:101590007B22D20391430843686028683043286067
:1015A000FFF75AFC044604E0FFF756FC001B022834
:1015B00008D828688001F7D509E0FFF74DFC001B2B
:1015C000022801D90320FEBD28688001F5D400203F
:1015D000FEBD0120FEBD0000000001000010024021
:1015E0000070004088130000094910B5401E884271
:1015F00001D9012010BD074C60610321081F00F0D4
:10160000E3F90020A06107202061002010BD000048
:10161000FFFFFF0000E000E070B5040005D02546A4
:101620006035687A002802D006E0012070BD0020F5
:101630002872204600F026F824206872206801688D
:10164000490849000160204600F0DEFA0128EDD08B
:10165000606A002802D0204600F036FA206841680F
:101660000922D20291434160206881682A22914375
:10167000816020680168012211430160204600F06A
:1016800089FA70BDF0B587B0044614216846FEF7AC
:101690006FFD1D4F01212668092000231B4A4904C4
:1016A00002250124C006BE4214D19769CE103743EB
:1016B000976197693740059756690E43566152699D
:1016C00001950A40032149020592009103210293EA
:1016D000039113E00E4FBE4214D1D6690E43D6617A
:1016E000D6690E40059656690E43566152690293BB
:1016F0000A400C21059201950393009169460494D8
:10170000FFF7F4FA07B0F0BD0038014000100240C6
:1017100000440040FFB5074604466037B87A83B0FE
:101720000E46202871D1002E0CD00598002809D033
:101730000120A1680003814207D12069002804D15B
:10174000F00702D0012007B0F0BD387A01285CD044
:10175000012038720020E0662220B872FFF77CFB7F
:101760000290254640350598288305986883012214
:10177000A0681203FF21904204D12069002815D1EE
:1017800023480AE07F2200280BD001210907884264
:1017900004D12069002807D03F20A883A88B01909E
:1017A00023E02069002801D0AA83F7E7A983F5E7A1
:1017B000688B401E688306980090002220212046F6
:1017C000029B00F0CFFA002801D00320BBE70120E4
:1017D000A1680003814202D1206900280DD0206851
:1017E000818C019801403170761C688B0028DFD114
:1017F0002020B87200203872A5E72068808C0199FB
:1018000008403080B61CF0E7FFE702209BE70000AD
:10181000FF010000FFB5064604466036707A83B0CB
:101820000D46202858D1002D0CD00598002809D04D
:101830000120A1680003814207D12069002804D15A
:10184000E80702D0012007B0F0BD307A012843D06C
:10185000012030720020E06621207072FFF7FCFA50
:10186000019027464037059838820598788218E01D
:10187000788A401E788206980090002280212046B7
:10188000019B00F06FFA002818D10120A168000325
:10189000814202D12069002812D021682878088569
:1018A0006D1C788A0028E3D1069800900022402120
:1018B0002046019B00F056FA002808D00320C2E71A
:1018C00028882168C005C00D0885AD1CE9E72020E7
:1018D000707200203072B6E70220B4E7FEE7000025
:1018E00030B587B014216846FEF742FC1A484269B9
:1018F0000121C9040A43426142690A4005924269D2
:10190000C9000A43426142690A400592426949118D
:101910000A434261406909250840ED06059000220E
:1019200020212846FFF792FA0120400300900B483F
:1019300000240190694602940948FFF7D7F9202056
:101940000090012001900294694603942846FFF715
:10195000CDF907B030BD000000100240000021109A
:101960000008004810B50A4808490160E121490211
:10197000416000218160C16001618161C1610C220F
:10198000016242614162FFF747FE10BD003801402D
:101990009C00002010B50A48084901604B2149020B
:1019A000416000218160C16001618161C1610C22DF
:1019B000016242614162FFF72FFE10BD004400400A
:1019C0000C010020704700008307FF22DB0E9A40C5
:1019D0008907090E994000280BDA0007000F083824
:1019E000830808489B001818C36993430B43C361DD
:1019F0007047830804489B001B18186890430843ED
:101A00001860704700ED00E000E400E070477047A8
:101A100010B5FFF727FA10BD30B599B034216846EC
:101A2000FEF7A6FB00241494159416941C210DA80F
:101A30001794FEF79DFB2020009001200890099448
:101A40006846FFF7E5FB0720032514901694012153
:101A50001595179414A8FFF7D7FA0F940DA80D95B4
:101A60001094FFF741FA19B030BD00001248016828
:101A70000122114301604168104A11404160016830
:101A80000F4A1140016001680122920491430160F4
:101A900041683F22120491434160C16A090909016A
:101AA000C162016B074A11400163416B490849005B
:101AB0004163002181607047001002400CB8FF08AC
:101AC000FFFFF6FE2CFEFCFF10B5818CC90707D086
:101AD00001684A6801235B049A43836A1A434A6097
:101AE000818C890707D501684A6801231B049A4342
:101AF000C36A1A434A60818C490707D501684A685E
:101B000001239B049A43036B1A434A60818C0907A3
:101B100007D501684A680123DB039A43436B1A43E4
:101B20004A60818CC90607D50268916801231B03AE
:101B30009943836B19439160818C890607D50168AD
:101B40008A6801235B039A43C36B1A438A60818CC2
:101B5000490612D503685A6801210905046C8A43B5
:101B600022435A60026C8A4207D1026851680323FB
:101B70005B059943436C19435160818C090607D575
:101B800001684A680123DB04806C9A4302434A607F
:101B900010BD0000F8B500260446C666FFF75CF9E4
:101BA000054616492068884202D0154988421DD151
:101BB0000068144F000709D501212B460022490572
:101BC0002046009700F0CEF800280DD1206800686C
:101BD00040070BD501212B4600228905204600979E
:101BE00000F0C0F8002801D00320F8BD20206034A8
:101BF0006072A07226720020F8BD0000003801401B
:101C000000440040FFFFFF01F8B504462369A268C5
:101C1000E5691A43636910202B43002125681A43A4
:101C20002B680E46474F3B4013432B6023685A688E
:101C300003252D03AA43E5682A435A60236AA26953
:101C400025681A43AB680B273F02BB431343AB60C5
:101C50003D4F25683D4B0203BD420AD11B6B9B07DC
:101C60009B0F20D0012B14D0022B14D0032B1BD19F
:101C70000DE0374FBD4210D11B6B03273F043B40A3
:101C800011D09B1A05D09B1A05D093420CD102208B
:101C90000AE0042008E0082006E02E4B9D4202D016
:101CA0002D4B9D4200D100200123E769DB039F42B9
:101CB00022D100280CD002280DD0042813D00828E7
:101CC00017D001260A0912010807400F10432EE021
:101CD000FFF74AFA09E06168204A48088018FEF7D1
:101CE00007FA81B2EEE7FFF74FFA616840004A0851
:101CF000F4E761684808F1E7002808D0022809D015
:101D000004280CD0082815D001263046F8BDFFF76E
:101D10002BFA06E06168124A480880180DE0FFF7C8
:101D200033FA61684A088018FEF7E2F980B2216848
:101D3000C860EAE761684808C018FEF7D9F980B2C0
:101D4000E860E2E7F369FFEF00380140001002406D
:101D50000044004000480040004C00400024F400D3
:101D600000127A00FFB581B017460E4604460A9D60
:101D70001DE0681C1BD0002D05D0FFF76DF80499FD
:101D8000401AA84213D920680168FF22A13291436A
:101D90000160206881684908490081602020603422
:101DA0006072A07200202072032005B0F0BD206890
:101DB000C1693046884304D00020B842D9D0002001
:101DC000F3E70120F9E700000FB41CB5024600203C
:101DD00007AC00290BD0491E01910092064B6A46C0
:101DE0002146069800F0F2F8009A002111701CBC00
:101DF00008BC04B018470000052700082021020C89
:101E000001D010211046020A01D0104608390209FB
:101E100001D01046091F820801D01046891E4208D1
:101E200001D0881E7047081A704702E008C8121FC8
:101E300008C1002AFAD170477047002001E001C1B3
:101E4000121F002AFBD17047F0B51FB486B0099865
:101E5000089A030D0021024314D05148514A181822
:101E6000504305141198012810981AD0281A401CC4
:101E700000264D4F4D49009601910490002812DA3A
:101E8000444211E01198012449A3012801D110987E
:101E9000C1430698119A84600360C26041600BB030
:101EA000F0BD4042E4E70446210500203F4A001C03
:101EB00051410391029012E0E00707D032463B46C1
:101EC00001990098FEF7CCFA0191009032463B460A
:101ED00010461946FEF7C4FA06460F466410002C59
:101EE000EAD10498039B0028029A0999089806DA17
:101EF000FEF7B6FA019B009AFEF7B2FA05E0FEF78C
:101F000017FB019B009AFEF713FB04460E460022C6
:101F1000284BFEF7A5FB03D80020C043014607E08D
:101F20000022254B20463146FEF7E8F9FEF778FB04
:101F3000102409E0002C0ADB0A220023FEF75CF9DA
:101F4000079B30321A55641E02460A43F2D1112211
:101F5000641C079B121B1C19119B012B03D001232E
:101F600008430ED10AE0084304D01120109000204D
:101F7000119077E71098151A6D1E0BE010988242A9
:101F800002DD00236D1C03E0824201DA00236D1E96
:101F9000002BEED0069811998260C16030C07EE7B8
:101FA00001FCFFFF104D0000000014400000F03F56
:101FB000300000000000F0430000E03F30380A2805
:101FC00001D201207047002070470000FFB597B094
:101FD0000646002518E2252877D100242746FD492A
:101FE000049400E00443761C32780120203A9040AB
:101FF0000842F7D130782A280ED0022230780146E4
:102000003039092916D804990A2359433039401820
:102010001443761C0490F1E7189802C804911890B4
:10202000002904DA012040030443484204900220BE
:102030000443761C30782E2814D104200443707891
:10204000761C2A2809D11898761C80C8189009E0B7
:102050000A214F43303FC719761C3078014630398A
:102060000929F5D930786C2810D006DC4C281AD014
:1020700068280ED06A2817D104E0742813D07A2873
:1020800012D110E00120400504430CE001210905B4
:1020900001E0032109050C437178814203D101203D
:1020A00000052418761C761C3078119066280BD019
:1020B00013DC58287DD009DC00287BD04528F6D0D9
:1020C0004628F4D047281AD1A5E118E0632835D076
:1020D000642870D0652812D19DE170286CD008DC8E
:1020E0006728F1D069287BD06E280DD06F2806D1E3
:1020F000BAE073282ED0752871D0782859D01A9A52
:10210000199990476D1C7EE16002400F022809D0AA
:1021100003280DD00428189801680DD00D60001D0B
:10212000189070E11898EA1701680D604A60F6E7A8
:10213000189801680D80F2E70D70F0E718986A466C
:1021400001781172001D18900020507202A80090B2
:10215000012005E0189802C8189000200091C043A3
:1021600061070DD5002101E00199491C0191B94297
:1021700012DA8142F8DB009A515C0029F4D10BE0BD
:10218000002101E00199491C01918142FADB019A89
:102190000099895C0029F5D1019904981A9B471A86
:1021A00021463846199A00F097FA019940194518C6
:1021B0000BE04FE02CE113E04EE00098009900782E
:1021C000491C00911A9A199990470198401E019054
:1021D000401CF2D1214638461A9B199A10E137E08B
:1021E0000A200021009001916002410F022907D0CE
:1021F000189A01CA1892C2179446032908D00AE017
:102200001898C01DC108C90005C91891944607E077
:1022100000B2C2179446042902D140B2C1178C46BD
:1022200000226146944506DA0A4600214042914167
:102230008C462D2102E0210504D52B216A4611731D
:10224000012103E0E10701D02021F7E7029155E0E9
:102250000A200AE0102008E010200090002104204D
:1022600004430191082703E0082000210191009018
:102270006002410F022907D0189A01CA1892002261
:102280009446032908D008E01898C01DC108C90069
:1022900005C91891944603E080B2042900D1C0B268
:1022A00000210291210729D51199702906D0009AA1
:1022B0001021019B4A401A4305D00EE040216A4696
:1022C0001173012108E06146014306D030216A46BE
:1022D00011731199517302210291009A0821019BF7
:1022E0004A401A430AD16146014301D1610705D52D
:1022F00030216A46117301217F1E029111995829DC
:1023000004D035A10E910DA90D910DE037A1F9E78B
:102310006146019B009AFDF76FFF0E9B8C469B5C0C
:102320000D9A521E0D92137061460143F0D10D9823
:1023300005A9081A20300190600703D50120000488
:10234000844300E001270198874201DD381A00E04C
:102350000020019900904118029809180498401A29
:102360000490E00306D421461A9B199A049800F0C1
:10237000B3F94519002706E003A81A9AC05D199918
:1023800090476D1C7F1C02988742F5DBE0030CD55B
:1023900021461A9B199A049800F09EF9451904E009
:1023A0001A9A3020199990476D1C0099481E009088
:1023B0000029F5DC08E00D980D990078491C0D9175
:1023C0001A9A199990476D1C0199481E019000298D
:1023D000F1DC63E10928010030313233343536371E
:1023E0003839616263646566000000003031323361
:1023F0003435363738394142434445460000000001
:1024000000F05AF94519761C3078002800D0E2E532
:1024100028461BB0F0BD600700D406271898C01DE1
:10242000C108C90048680A680831C30FDB07189162
:10243000190001D09CA108E0210501D59BA104E071
:10244000E10701D09AA100E09AA1430011985B082E
:10245000109165280CD006DC452809D046281DD0EF
:10246000472841D141E0662818D067283CD13CE09C
:102470000021112F01DB112000E0781C0191009058
:1024800008A911A8FFF7E0FC139905910021119A02
:1024900015927F1C12980197009150E00120C0070F
:1024A00003900120019008A9009711A8FFF7CCFC28
:1024B000139A149905920022119B00921298159379
:1024C000059A0192002901D0104602E0791C4018BB
:1024D0000190381A01D5019804E04042401E009056
:1024E000781C0190C01B029043E0012F00DA012705
:1024F0000021112F01DD112000E0384601910090EC
:1025000008A911A8FFF7A0FC13990591119A0021C1
:10251000129815920091019721070CD40599B942A0
:1025200001DB019900E00191012904DD159A491EA2
:10253000515C302906D0B84201DA011D05DA0121CB
:10254000029115E00199491EEDE7002805DC00998C
:10255000411800910199091A03E0019A411C914226
:1025600000DD01910099401A401C02900120C00733
:102570000390200706D402990198814202DB0020D3
:10258000C043029000206946C87707AF0121039835
:102590000337C907884224D0022011902B201290C3
:1025A000039800280CDA404203902D20129007E097
:1025B0000A210398FDF79CFD30317F1E039039708E
:1025C0001199481E11900029F2DC03980028EFD1E0
:1025D000791E129808703078202108404530BF1EBF
:1025E000387006A8C01BC01D039010980078002802
:1025F00000D00120019941180298C01709180398CA
:1026000009180498401A401E0490E00306D421469D
:102610001A9B199A049800F05FF8451910980078F1
:10262000002803D01A9A199990476D1CE00324D50D
:1026300021461A9B199A049800F04EF845191CE09F
:102640000098002807DB00990598884203DD15985B
:10265000405C199901E0199930201A9A9047009826
:102660006D1C401C00900298401E0290002804D16E
:102670001A9A2E20199990476D1C0199481E0190B5
:102680000029DDDC05E038781A9A7F1C19999047FB
:102690006D1C0399481E03900029F4DC21461A9B07
:1026A000199A0498ACE600002D0000002B000000F1
:1026B0002000000000000000F8B5044600251E467A
:1026C0001746880404D405E039462020B0476D1C25
:1026D000641EF9D52846F8BDFFB50446002581B033
:1026E0001E46C80301D5302700E02027880404D502
:1026F00005E038460399B0476D1C641EF9D528469D
:1027000005B0F0BD4A68002A06D00A68531C0B6069
:1027100010704868401E486070470000F8B51F46BA
:1027200003461A48069E079D089CC7618361068080
:10273000056244808262416209991346C1620022A7
:102740001146134800F030FA104900223031114B85
:10275000CA601868086108461430C26001612831F7
:10276000CA60086119603146384600F0CBF821464E
:10277000284600F0C7F8002231463846FEF766FBCF
:10278000002221462846FEF761FBF8BD000000202C
:10279000C53600087C01002008B5094801231A4607
:1027A00069468069FEF7B6FF002804D168460178C3
:1027B000044800F0DFF900F007F800F021F808BD48
:1027C000000000207C01002070B50C4C60680028DF
:1027D0000DD0FEF741FB0546A068854206D321884F
:1027E000E069FEF72FFB60682818A06070BD00222A
:1027F0002188E069FEF72AFB70BD00000000002080
:102800003EB5FEF729FB164C0546E068002824D0AB
:102810002069854221D36069002809D06068019051
:10282000009510491048A36A626A00F0C5F80CE0F0
:10283000E26A002A12D0A16A6068009102900195B4
:102840000A490948636A00F0B7F86069002805D0B2
:1028500000206061E068281820613EBD0120F8E793
:1028600000000020AC3700087C0100202038000860
:1028700010B586B008A405940AA30BA210A102AC5F
:102880000EC411A112A20092019113A215A14369D5
:1028900000F002FA06B010BD66303732746573740A
:1028A0000000000061707000466562203230203206
:1028B0003031392031373A33333A323900000000B1
:1028C00066775F696400000073746D333200000046
:1028D000617263680000000066775F7665727369F5
:1028E0006F6E00007B25513A25512C2025513A2549
:1028F000512C2025513A25512C2025513A25517D26
:1029000000000000F0B58C460921C906244B254C77
:10291000254D264E264F274A87B0884202D153695B
:10292000A10125E0984208D1546901239B041C436E
:1029300054615169194005910AE0A04208D15369D8
:102940000121C9040B43536153690B4005930AE00D
:10295000A84208D15369012109050B43536153690A
:102960000B4005930AE0B04208D1536901214905A3
:102970000B43536152690A40059205E0B84203D106
:10298000536901218905F3E7614600910121019115
:102990000021029103916946FEF7A8F907B0F0BD46
:1029A0000004004800080048000C004800100048DF
:1029B00000140048001002400FB430B587B0044640
:1029C0000A206946087514220A496846FDF7B7FBD4
:1029D00001940CAA68460B9900F074FD0546A368A3
:1029E000012105A862689847284607B030BC08BC9A
:1029F00004B018470837000810B5029C4360C26055
:102A000081600549CC6002680A6101601431C860C8
:102A100002680A61016010BD6C000020F7B59CB02F
:102A200000260F4604460C961422344901A80D9640
:102A3000FDF785FB182106A80294FDF799FB01A874
:102A40000A900DA800900CAB2DA238461E9900F0FC
:102A5000F1FA0C9800280BD00D98002808DDE368E7
:102A6000002B03D0626838461E9998471FB0F0BD0E
:102A7000322000900EAB25A238461E9900F0E7FBED
:102A8000051E07DC3B4624A120461E9AFFF794FF53
:102A90002661EBE709A8009008AB2AA238461E99E8
:102AA00000F0C8FA07A8009006AB28A238461E9985
:102AB00000F0C0FA24680AE06068A84206D12A46FD
:102AC0000EA92068FDF766FB002809D02469002CB8
:102AD000F2D121A325A2264906A800F09FF8C5E758
:102AE0000698002801D108A00690E0680B90A16824
:102AF00006A88847002CECD0B8E700001C37000877
:102B0000242E726573756C7400000000242E6D65B0
:102B100074686F64000000007B226572726F72221D
:102B20003A7B22636F6465223A2D33323730302C82
:102B3000226D657373616765223A252E2A517D7D6A
:102B400000000000242E696400000000242E706143
:102B500072616D73000000006D6574686F64206EB3
:102B60006F7420666F756E640000000025510000D0
:102B7000A780FFFF70B50446006900250A46FF28BC
:102B800000DD2561214614310A2A05D0206942540E
:102B90002069401C206170BD2269012A02DD2046A7
:102BA000FFF73CFF256170BD08B5009313460A4648
:102BB00001460248FFF720FF08BD00007C0100200D
:102BC000F8B507460868021D0A60066800253468E3
:102BD00012E03068A04205D0012209A1384600F079
:102BE000EDFB45192068FDF7CEFA0246384621680C
:102BF00000F028FC24694519002CEAD12846F8BDCC
:102C00002C00000030B40C46416813468D684A68B9
:102C10002046AC4630BC1946604700000FB438B5BA
:102C2000C2680446002A16D0009107AD0CA1A36823
:102C3000206900F03DFC06992069002903D02A464E
:102C400000F040FC03E011A211A100F031FC11A141
:102C5000206900F02DFC38BC08BC04B01847000007
:102C60007B226964223A252E2A732C226572726FA8
:102C700072223A7B22636F6465223A25642C226DAE
:102C8000657373616765223A00000000222200002C
:102C9000257300007D7D0A000FB470B5C26804463C
:102CA000002A15D006AD0CA1A368206900F000FC35
:102CB00005992069002903D02A4600F003FC03E0AF
:102CC0000BA20DA100F0F4FB0CA1206900F0F0FBB9
:102CD00070BC08BC04B018477B226964223A252ED8
:102CE0002A732C22726573756C74223A00000000FE
:102CF0006E756C6C00000000257300007D0A0000FA
:102D000010B5044603CC002309A2083C00F0B6F934
:102D1000002801D0012200E0002207484188006A13
:102D2000FEF794F800212046FFF7B6FF10BD000023
:102D3000242E6F6E000000000000002010B5054A30
:102D400004465188106AFEF77DF800212046FFF7FF
:102D5000A3FF10BD000000201FB5FEF78BF8FEF7A3
:102D60005BFEFEF7BDFDFEF715FEFEF7FBFD08A0BE
:102D7000402109232022DB06009202910390019357
:102D800006A208A10A48FFF7C9FCFFF705FDFCE70A
:102D90002F6170702F746F7069630000312E302EB8
:102DA0003000000066303732746573740000000034
:102DB0009C000020FFB500208DB01F4616460B90EA
:102DC00004460A90FCE00D980294055D2846202DEB
:102DD00078D0092DFCD00A2DFAD00D2DF8D00B9902
:102DE000002906D001296ED002296DD0032939D1DE
:102DF000BDE07B2D1FD05B2D27D05D2D33D0742DF2
:102E000043D06E2D4FD0662D5FD02D2D03D0284698
:102E10003038092868D800200B900D980BA90019AC
:102E2000054600F041FC0B98002802D0401B041915
:102E3000641E0C2067E00A99142909DA0A9A05A988
:102E400088540A99491C0A91A2E00A99142903DBC3
:102E50000120C04311B0F0BD0A9A05A988540A990F
:102E6000491C0A91A2E00A99002960DD0A9A05A985
:102E700089182039C97F5B2959D170E0002E4ED0C6
:102E80000123224600970D9948E00E99E01C8842E4
:102E9000BDDA0D98042200194DA1FDF77BF9002839
:102EA00045D10D200CE00E99E01C8842AFDA0D9858
:102EB0000422001948A1FDF76DF90028A7D10F20C1
:102EC000E41C20E07BE02EE04DE00E99201D8842BE
:102ED0007ADA0D980522001941A1FDF75BF9002867
:102EE00072D10E20241D0EE0222D6DD10E98011BF3
:102EF0000D98491E0019401C00F0E7F90028A9DBD5
:102F000024180B20641C0A9900290AD1002E06D02F
:102F100002990097631A0A465B1C0D99B047601C22
:102F200098E7032135E0222D02D07D2810D04BE018
:102F30000E98011B0D98491E0019401C00F0C5F9A0
:102F4000002887DB241802210120641C0B912DE04E
:102F50000A9A05A989182039C97F7B2934D1511EC5
:102F60000A91DED18AE73A282ED1002111E00A9990
:102F7000002929DD2C2D04D05D2D0CD07D2D0AD00B
:102F800022E00A9A05A989182039C97F7B29ECD14A
:102F900001210B910AE00A9A05A989182039C97FF5
:102FA000891C814210D1511E0A91DBD0002E06D01F
:102FB00002990097631A0A465B1C0D99B047641C7E
:102FC0000E98844200DAFEE60020C04342E700008B
:102FD00074727565000000006E756C6C0000000076
:102FE00066616C736500000030B50CA40EA3002967
:102FF00001D022460CE01A460AE0854207D100299A
:1030000002D0101B185C30BDD01A205C30BD521CA1
:103010001578002DF1D1002030BD0000080C0A0DFC
:10302000095C222F0000000062666E72745C222F21
:1030300000000000FFB58BB014460F461D46282245
:103040000C496846149EFDF77AF808960795009497
:103050002078242807D16B46074A39460B98FFF79A
:10306000A9FE002802DA00200FB0F0BD0998C0B216
:10307000FAE70000E03600089D30000838B51C462D
:1030800000230093FFF7D6FF0D2802D00E2802D0B0
:1030900002E0012400E00024204638BDF8B5069C7B
:1030A0001646626A1D46002A13D17B282FD05B2862
:1030B00010D02C2836D002460B3A8B1996460128A0
:1030C00049D07D287BD05D2879D096E0A068401C4F
:1030D000A060F8BDE168A068884218D103CC083C24
:1030E000405C5B2813D1002020612068401800213B
:1030F000401C00F0D9FAFDF75BF86061216981425C
:1031000005D1E068401CE0606068C01C606003CCD2
:10311000083C405C0028D9D1E168A0688842D5D13C
:10312000A661D3E7E068A168401C8142D1D1206943
:10313000401C206161698842CBD103CC083C425CD1
:103140005D2A02D0491C6160F9E7481C6060E068B4
:10315000401CE060F8BDE268A768521C97424CD161
:10316000226867689446D25D2E2A46D18A5D222A5B
:1031700043D1721951182039C97F22293DD16146A6
:10318000C9194E1C002200E0521CB75C002F03D06E
:103190002E2F01D05B2FF7D1AE1EB2422DD1581C7D
:1031A000AA1E491CFCF7F6FF0028D3D1E0686D1E6B
:1031B000401CE060606840196060F8BDFFE7A268ED
:1031C000521EA26028CC083C5B5D002BF5D1E36861
:1031D0009A42F2D1A269521CEFD0801E6062E0696F
:1031E000002802D0A26951180160206A0028E4D0AA
:1031F000A169711A491C0160DFE771460929DCD217
:10320000E268A1689142D8D106CC083C895C0029CB
:10321000D3D16062E069002800D00360206A0028F2
:10322000CBD00560C9E73EB502AB0093079D069C75
:1032300001ABFFF7FFFE0C2805D10021019800F03B
:1032400033FA04460D462046294603B030BDF0B59A
:1032500085B01C4602AB0A9E009301ABFFF7EAFE65
:103260000B2802D0002005B0F0BD0198029F401C41
:103270000025009403902C46BF1E19E00398405D82
:103280005C2811D1691CB9420EDA0398002140195B
:103290004078FFF7A9FE002803D000996D1C08555F
:1032A00004E00020C043DEE700990855641C6D1C53
:1032B000BD4201DAB442E1DBB442F2DA002E02DDB3
:1032C0000099002008552046CDE7F8B500240E46A9
:1032D0000546671E14E0285D5C280BD1601CB042D7
:1032E0000DDA281940780121FFF77EFE002801D071
:1032F000641C04E0285D002804D0222804D0641C4B
:10330000B442E8DB3846F8BD2046F8BDF7B582B0D8
:10331000029815460368264F012226A198470646C3
:1033200000243AE00398015D601C8646A84203DA57
:1033300003980019407800E00020A21C0192AA42E4
:1033400003DA039A1219927800E0002294461AA236
:10335000126800928A10BB5C6A4613708907890E56
:1033600002111143795C6A465170AE4506DA0007D6
:10337000800E614689110843385C90700198A8421C
:1033800004DA60468006800E385CD0700298042211
:103390000368694698478619E41CAC42C2DB029870
:1033A0000122036803A19847801905B0F0BD000011
:1033B000AC3800082200000000003D3D03681847BB
:1033C00010B58CB004460E98009202460193282155
:1033D00002A8FEF7F9FC0246236802A92046984796
:1033E0000CB010BD10B586B00446002A01D007A26B
:1033F00000E007A20B4614216846FEF7E5FC0246F2
:10340000236869462046984706B010BD2564000031
:103410002575000010B586B00446002A01D007A229
:1034200000E007A20B4614216846FEF7CDFC0246D9
:10343000236869462046984706B010BD256C640095
:10344000256C7500F7B51746036882B00646012261
:1034500015A19847044600251BE003980121405D13
:10346000FFF7C2FD0006000E6946087009D03368F8
:1034700001220EA13046984704190122694633689B
:1034800003E0039833684119012230469847041934
:103490006D1CBD42E1DB3368012203A13046984731
:1034A000001905B0F0BD0000220000005C00000023
:1034B0000FB410B504AA039900F004F810BC08BCBE
:1034C00004B01847F7B5002582B00F462C4608E037
:1034D00025280CD0791901226D1C0298FFF76EFF88
:1034E0000419785D0028F3D1204605B0F0BD6D1CAD
:1034F0007E5D002000906C2E03D101200090781991
:103500004678512E1FD07819032247A10190FCF76D
:1035100041FE002823D0642E2CD0752E28D0422EB8
:103520003CD0732E4BD0032240A10198FCF732FE11
:10353000002848D0672E51D0662E55D0562E5FD029
:103540004D2E66D06DE0049840C804903046FCF7DC
:103550001AFE024631460298FFF774FF60E00498B5
:1035600002684168083004900298FFF76BFF32E070
:10357000002200E00122009800280498016807D08A
:10358000001D04900298FFF745FF04196D1C48E0E8
:10359000001D04900298FFF725FF41E0049802C83F
:1035A0000490002901D022A600E023A63046FCF7B3
:1035B000EAFD024631460298FFF700FF30E004982A
:1035C00040C80490F2E7049802684168083004900B
:1035D0000298FFF7F3FE0419AD1C22E0049818A12D
:1035E000C01DC008C00004E0049816A1C01DC0089A
:1035F000C00000910CC804900298FFF7E1FE0FE0B4
:10360000049802684168083004900298FFF77EFE33
:1036100006E00498009004C800906946029890471C
:1036200004196D1C5DE700002E2A51002E2A73003C
:10363000747275650000000066616C7365000000BF
:10364000256700002566000010B5034A03A1436901
:10365000FFF722FB10BD0000C12B00085B254D5D6C
:10366000000000001CB5084A00210192009103C827
:1036700006A2FFF7D8FDFCF79BFD002803DB0949F4
:103680004860002088601CBD0000F0BF242E6170DF
:10369000702E626C696E6B5F706572696F645F6DCE
:1036A000730000000000002000B50A4683B000212E
:1036B0000091019101466846FCF7E9FD01990098E7
:1036C00003B000BD10B50C468AB2014603487D2305
:1036D000DB008069FEF79EF8204610BD0000002048
:1036E00000000000010000000000000000000000D9
:1036F0000000000000000000FFFFFFFF00000000CE
:103700000000000000000000052C00080000000080
:10371000000000000000000000000000052C000870
:103720000000000000000000000000000000000099
:103730000000000000000000010203040607080961
:103740000000000001020304DDDDDDDDDCBBBBDDCC
:10375000DDDDDDDDDDDDDDDD988888888888888831
:103760007777777777888888855555566666666651
:103770006666666666688888833333322222222230
:10378000222222222228888D536861646F772E447A
:10379000656C7461000000004C45442E546F6767EF
:1037A0006C6500004C45442E536574007B226D65AA
:1037B00074686F64223A2022536861646F772E52D6
:1037C00065706F7274222C2022706172616D732299
:1037D0003A207B22617070223A207B226E616D65F7
:1037E000223A2025512C202276657273696F6E2251
:1037F0003A2025512C2022757074696D655F6D73B8
:10380000223A2025752C2022626C696E6B5F7065F0
:1038100072696F645F6D73223A2025757D7D0000AB
:103820007B226D6574686F64223A20224D51545496
:103830002E507562222C2022706172616D73223AC3
:10384000207B22746F706963223A2025512C20223C
:10385000716F73223A20302C20226D65737361677B
:1038600065223A207B226E616D65223A2025512C1B
:10387000202276657273696F6E223A2025512C20C2
:1038800022757074696D655F6D73223A2025752C01
:103890002022626C696E6B5F706572696F645F6D28
:1038A00073223A2025757D7D7D000000414243440E
:1038B00045464748494A4B4C4D4E4F505152535440
:1038C00055565758595A6162636465666768696AF4
:1038D0006B6C6D6E6F707172737475767778797AC0
:1038E000303132333435363738392B2F0000000071
:1038F0005379732E476574496E666F005250432E9C
:103900004C69737400000000283900080000002092
:103910009C0000002A1E0008C43900089C000020FA
:10392000F40500003A1E00080000000064000000DA
:1039300000000000C40900000000000001000000B9
:103940000000000000000000000000000000000077
:103950000000000000000000883700080C00000094
:10396000653600080000000000000000A4370008D1
:1039700007000000012D000800000000000000000A
:10398000983700080A0000003D2D000800000000E4
:1039900000000000F03800080B000000712800084B
:1039A0000000000000000000FC38000808000000D3
:1039B0004936000800000000000000000000000080
:0439C00000127A0077
:04000005080000C12E
:00000001FF
