:020000040800F2
:10000000980600209D010008271C00085F1B0008BF
:10001000251C0008DB0C0008E11F000800000000A0
:100020000000000000000000000000004B1C000861
:10003000DD0C000800000000491C00084D1C0008F1
:10004000B7010008B7010008B7010008B7010008B0
:10005000B7010008B7010008B7010008B7010008A0
:10006000B7010008B7010008B7010008B701000890
:10007000B7010008B7010008B7010008B701000880
:10008000B7010008B7010008B7010008B701000870
:10009000B7010008B7010008B7010008B701000860
:1000A000B7010008B7010008B7010008B701000850
:1000B000B7010008B701000800000000B701000800
:1000C000B70100080000000000000000B7010008B0
:1000D00000000000B7010008B7010008B7010008E0
:1000E000B7010008B7010008000000000000000090
:1000F0000000000000000000000000000000000000
:1001000000000000000000000000000000000000EF
:100110000000000000000000B7010008B70100085F
:1001200000000000000000000000000000000000CF
:1001300000000000000000000000000000000000BF
:10014000B7010008B701000800000000000000002F
:10015000000000000000000000000000000000009F
:10016000000000000000000000000000000000008F
:10017000000000000000000000000000000000007F
:1001800000000000B7010008DFF80CD000F0CCFA46
:1001900000480047712F0008980600200648804755
:1001A00006480047FEE7FEE7FEE7FEE7FEE7FEE75C
:1001B000FEE7FEE7FEE7FEE7A51C00088901000850
:1001C000202A04DB203A21FA02F00021704721FAAC
:1001D00002F3D040C2F12002914008431946704713
:1001E00040EA01039B0703D009E008C9121F08C0B9
:1001F000042AFAD203E011F8013B00F8013B521E39
:10020000F9D27047D2B201E000F8012B491EFBD2AF
:1002100070470022F6E710B513460A460446194611
:10022000FFF7F0FF204610BD421C10F8011B00290B
:10023000FBD1801A704730B504460020034600E029
:100240005B1C934203D2E05CCD5C401BF8D030BD18
:1002500070B5C1F30A5201F000450024C1F3130147
:1002600040F2FF3341F480119A4201DA002070BD60
:1002700040F233439A42A2F2334203DC5242FFF788
:100280009FFF00E090402C43F1D0404270BD30B55C
:100290000B46014600202022012409E021FA02F544
:1002A0009D4205D303FA02F5491B04FA02F52844DE
:1002B000151EA2F10102F1DC30BD2DE9F05F05460B
:1002C000002092469B4688460646814640241BE015
:1002D0002846414647462246FFF772FF53465A4694
:1002E000C01A914110D311461846224600F02EFA4A
:1002F0002D1A67EB01084F4622460120002100F02D
:1003000025FA17EB00094E41201EA4F10104DFDCA1
:10031000484631462A464346BDE8F09F0FB40023C5
:1003200000B589B00CA900910B996FF00042CB6029
:100330001E4B06931E4B07930423CDE901321D4A41
:10034000089202466B46002000F0BAFA09B05DF848
:1003500014FB70B586B006464FF0FF300091CDE932
:100360000101002015460C4604903246694604A857
:10037000FFF7D4FF02460498211825B108B10846BA
:1003800000E020462860049800280DD0002A02DDF5
:100390000098884208D0081B0094CDE90104324639
:1003A000694604A8FFF7BAFF06B070BDF90A000855
:1003B000170B00088F0700082DE9FE4F804681EAE1
:1003C0000300C00F0C46009021F0004123F00045CF
:1003D000B8EB0200A94105D24046214690461C4692
:1003E0000B46024623F00040104347D0270DC7F3C9
:1003F0000A00C3F30A510290401A019040286BDAB8
:10040000C3F3130040F4801B0098924620B10023F0
:10041000D2EB030A63EB0B0B01985946C0F1400283
:10042000504600F093F906460D4650465946019A4B
:1004300000F09BF910EB08006141002487EA11529B
:1004400084EAE7731A4340D0009A62B3019A012A02
:100450004FEA075215DC001B61EB02014FF000422E
:1004600002EA0752CDE90042001C41F580113246F4
:100470002B4600F070FB03B0BDE8F08F40462146EC
:10048000F9E7001B61EB0201001C41F58013001825
:100490005B412018A2F5001747EB030140EAD57035
:1004A000B6196D4111E06D084FEA360645EAC07590
:1004B0004FEA0752001B61EB0201001C41F580115D
:1004C00049084FEA30000019514132462B4603B02B
:1004D000BDE8F04F00F030BB00980122400000233F
:1004E000D0EB020263EBE073009821464FEAE07420
:1004F000B8EB000061EB0401E9E783F000435BE740
:1005000081F0004158E72DE9FE4F81EA030404F031
:10051000004421F0004100944FF0000B23F0004311
:1005200050EA01045ED052EA03045BD0C3F30A54DC
:10053000C1F30A552C44A4F2F3340194A0FB0254F5
:10054000C1F3130141F48011C3F3130343F4801387
:1005500001FB024400FB034E840A970A44EA8154DB
:1005600047EA8357A4FB076802958D0A05FB0785B8
:100570004FEA932C04FB0C542705029D4FEA0658C2
:1005800047EA1637B5EB08056EEB070C870E920E9F
:1005900047EA811742EA8312A7FB0201B6EB0B017F
:1005A00064EB00042B0D43EA0C335E1844EB1C5043
:1005B000DA465146E7FB0201C5F313044FEA0B3359
:1005C00043EA14534FEA0432019C43EA0603A4F1C0
:1005D0000C040294009CCDE900B400F0BCFA03B016
:1005E000BDE8F08F00200146F9E72DE9F04D81EAE2
:1005F000030404F0004B21F0004514464FF0000ABC
:1006000023F0004150EA050220D054EA01021DD037
:10061000C5F30A570246C5F31303C1F31300C1F330
:100620000A5640F4801543F48013A7EB0608101B0C
:10063000D64608F2FD3873EB050002D308F1010835
:1006400001E092185B41B8F1000F03DA0020014687
:10065000BDE8F08D00204FF48011064684460EE080
:10066000171B73EB050705D3121B63EB050306434A
:100670004CEA010C49084FEA300092185B4150EAFD
:100680000107EDD152EA030012D082EA040083EAA6
:100690000501084305D0101BAB4106D201220023FF
:1006A00006E000224FF0004302E06FF00102531019
:1006B0001AEB06004CEB085110EB0A0041EB0B0162
:1006C000BDE8F04D00F038BAC1F30A52C1F313018E
:1006D00040F2FF3341F480119A4202DA00200146D1
:1006E000704740F233439A42A2F2334202DC524254
:1006F000FFF766BD00F02AB830B5041E71F10004A2
:1007000004DB4FF00044404264EB0101141E73F11E
:10071000000405DB1C464FF00043524263EB040328
:10072000994208BF904230BD064C074D06E0E06894
:1007300040F0010394E8070098471034AC42F6D328
:10074000FFF726FD503B0008703B0008202A04DB21
:10075000203A00FA02F1002070479140C2F12003D4
:1007600020FA03F3194390407047202A06DBCB1789
:10077000203A41FA02F043EAE07306E041FA02F35C
:10078000D040C2F120029140084319467047C0B2E0
:100790004FF4F05100F02EBA2DE9FF4F087883B0E6
:1007A0009946FF2805D0491C2D2804D0002400209C
:1007B00008E000200BE00124F9E700EB800003EBE8
:1007C0004000491C0B78FF2BF7D104B140420023B5
:1007D0000293147819461D462D2C01D02B2C04D1E0
:1007E000521C2D2C13D000240294AA461478FF2CFE
:1007F0000FD00A25A3FB057801FB05814FF0000C03
:1008000003FB0C11521CE3194AEB0101EEE7012432
:10081000EAE7814453EA010002D019F5C87F06DAFD
:1008200003980021C0E9001107B0BDE8F08F002552
:10083000AE4E2F46DFF8B882184600F0EFF9CDE94A
:100840000001B9F1000002DAC9F1000400E0044639
:100850000023A74A1AEB030B42EB045A12E0E0070D
:1008600007D02A46334638464146FFF74CFE074636
:1008700088462A46334610461946FFF744FE054689
:100880000E466410002CEAD1DDE90001B9F1000F39
:100890005A46534606DAFFF7A8FE3A464346FFF7A4
:1008A000A4FE05E0FFF72FFE3A464346FFF72BFE76
:1008B000029A0AB181F00041039AC2E90001B3E74C
:1008C0002DE9FF4F1F468DB0D7E901464FF0FF38A5
:1008D0002E2045464FF000090B90B9696D1C0E980B
:1008E0008847396A824688470028F6D1BAF1FF3F27
:1008F0000AD024F4D064002E11DDBAF12B0F08D0F9
:10090000BAF12D0F0BD102E0404611B08DE744F44F
:100910008064B9696D1C0E9888478246761E6946C8
:10092000600501D52D2000E02B208DF8000001F19D
:10093000010B0DF1200809E0B9696D1C0E9888477C
:1009400082460F9844F40074761E0560002E02DD86
:10095000BAF1300FF0D00B998A453ED144F08004B3
:1009600006E00F99681CA9F1010944F400740860BD
:10097000B9696D1C761E0E98884782463028F0D0E3
:100980002BE00B998A4505D1200603D444F080045E
:10099000761E18E0504601F025FC08B30DF1130156
:1009A000761E44F400748B4508D2AAF130000BF88F
:1009B000010B200607D5A9F1010003E0200602D4AF
:1009C00009F101008146A00502D50F99681C086055
:1009D000B9696D1C0E9888478246002ED1DC53E021
:1009E000002E51DDBAF1650F02D0BAF1450F4BD19F
:1009F000A00549D5B9696D1C24F44074761E0E9883
:100A000088478246002E0CDD2B2804D0BAF12D0F2A
:100A100007D144F48074B9696D1C0E9888478246EA
:100A2000761EE00501D52D2100E02B2108F8011BE1
:100A3000CDF82C8021E00DF12901761E44F40074DC
:100A400088450CD2AAF1300010F0FF0088F80000B1
:100A500002D10B99884509D908F1010806E0E005A3
:100A600001D5244801E042F20F708146B9696D1C3E
:100A70000E98884782460F980560002E04DD504688
:100A800001F0B0FB0028D6D1F9690E988847FF2005
:100A90008BF8000088F800000020069007904B4675
:100AA0006A4608A906A8FFF777FEA00502D46FF0F2
:100AB00001002AE714F0240F0AD0E00714D1DDE981
:100AC00006123868031D3B600068C0E900120BE0A5
:100AD000DDE9060100F0AEF80146E00704D1386810
:100AE000021D3A600068016028460EE700001440CD
:100AF0000000F03FF1D8FFFF426842B1016811F8F1
:100B0000013B23B1521EC0E9001218467047012173
:100B1000C160881E704742685AB1C368016843B912
:100B200083688B4205D0491E521CC0E90012002088
:100B300070474FF0FF30704710B5141E73F100047A
:100B400008DA401C41F1000192185B411A4301D1BF
:100B500020F0010010BD2DE9F04D92469B4611B1E9
:100B6000B1FA81F202E0B0FA80F220329046FFF74B
:100B7000EDFD04460F4640EA0A0041EA0B015346E8
:100B80005A46084313D0114653EA010019D0C8F160
:100B900040025046FFF714FB05460E4650465946A4
:100BA0004246FFF7D3FD084305D0012004E020466C
:100BB0003946BDE8F08D0020054346EAE0762C4337
:100BC00037430A986305E40AA0EB08000022FD0AF7
:100BD00044EA47540A3002D500200146E9E70105FE
:100BE00010196941DDE9084500196941BDE8F04D7A
:100BF000A2E700007F2801D9002208E0064A02EBA4
:100C00005002C007127800D1120902F00F02012031
:100C10009040084070470000903900080EB540F23F
:100C2000334202920022CDE900221346FFF793FFE0
:100C300003B000BD01F0004330B421F0004150EAA0
:100C4000010206D00A0DA2F56072C1F31301002A59
:100C500002DC30BC00207047440F44EAC104C100EC
:100C6000E01830BC00EBC250AFF300800029A8BFF1
:100C70007047401C490008BF20F00100704710B4C5
:100C8000B0FA80FC00FA0CF050EA010404BF10BC7A
:100C9000704749B1CCF1200421FA04F411FA0CF1A7
:100CA00018BF012121430843A3EB0C01CB1D4FEAE0
:100CB00000614FEA102042BF002010BC704700EBDB
:100CC000C35010440029A4BF10BC7047401C490009
:100CD00008BF20F0010010BC7047FEE7704700001D
:100CE0002DE9F84FDFF860B100234FF0010C4FF011
:100CF000030A4FF00F090BF1040E9DE00CFA03F606
:100D0000344022007ED04C68022C01D0122C0ED12F
:100D1000DC0800EB8408D8F820405D07EF0E09FAE4
:100D200007F5AC430D69BD402543C8F8205007685E
:100D30005D0091F804800AFA05F408F00308A7435F
:100D400008FA05F848EA0708C0F800804F68012F44
:100D500005D0022F03D0112F01D0122F11D1876897
:100D6000D1F80C80A74308FA05F848EA0708C0F84C
:100D700008804768B7430E79C6F300169E403E438D
:100D80004660C668A6438C68AC403443C4604C6877
:100D9000E40050D52D4CA56945F00105A561A46975
:100DA00023F0030504F001040094294C2E19B468C3
:100DB0009D072F0F09FA07F5AC43B0F1904F04D00F
:100DC000244DA84203D101250CE000250AE0224D64
:100DD000A84201D1022505E0204DA84201D10325FA
:100DE00000E00525BD402543B560DBF800405D46C9
:100DF0004E689443F60300D514432C607546DEF824
:100E0000004000E017E04E689443B60300D5144359
:100E10002C600D4D08352C684E689443F60200D5C1
:100E200014432C60084D0C352C684E689443B60270
:100E300000D514432C605B1C0A681446DA407FF42A
:100E40005DAFBDE8F88F00000004014000100240D3
:100E5000000001400004004800080048000C004861
:100E600042694A40426170470AB1816170478162BC
:100E7000704700000148806870470000940000201F
:100E80000148007870470000940000200248816803
:100E9000027811448160704794000020074810B523
:100EA000016841F010010160032000F05FF80020AC
:100EB00000F006F800F024F8002010BD00200240E9
:100EC00070B50D4D04464FF47A712878B1FBF0F0FF
:100ED0000A490968B1FBF0F000F0E0FC48B9102CB9
:100EE00007D200222146501E00F020F800206C603E
:100EF00070BD012070BD000094000020A000002003
:100F0000094808B5816941F001018161816901F0F9
:100F100001010091C16941F08051C161C06900F0D7
:100F20008050009008BD000000100240F0B40E4B4D
:100F30001B680C46C3F30223C3F10705042D00D937
:100F40000425191D072901D2002300E0DB1E01261C
:100F500006FA05F1491E214099409E40761E164032
:100F60003143F0BC00F060BE0CED00E0064900F03B
:100F7000070208684FF6FF03184040EA0220034AC0
:100F800010430860704700000CED00E00000FA0517
:100F90002DE9F84F04460068574DC0036FD5E86946
:100FA0000026C00008D4E86940F08050E861E86994
:100FB000012600F08050009050480168C90512D405
:100FC0000168804641F480710160FFF753FF0746D6
:100FD00005E000BFFFF74EFFC01B642835D8D8F8E6
:100FE0000000C005F6D5286A10F4407053D0A188DF
:100FF00001F4407181424ED0286A4FF4803191FA59
:10100000A1F2B2FA82F297003D4A4FF0010817446C
:1010100020F44070C7F8008491FAA1F1B1FA81F18F
:1010200002EB81010023C1F800342862C00732D0EE
:10103000FFF720FF074641F2883A4FF0020907E028
:10104000FFF718FFC11B514502D90320BDE8F88FF7
:1010500099FAA9F1B1FA81F141F040014846B8EBA3
:10106000511F01D129680CE090FAA0F1B1FA81F189
:1010700041F04001B0EB511F02D1296A01E015E0B7
:10108000696A99FAA9F0B0FA80F000F01F0008FA36
:1010900000F21142D4D0286A616820F440700843FD
:1010A00028621EB1E86920F08050E8612078C0070E
:1010B00005D0286BA16820F003000843286320783E
:1010C000800605D5286BE16820F0100008432863EE
:1010D0002078000605D5E86A216920F4F8700843F5
:1010E000E8622088C00405D5286B616920F480700F
:1010F000084328630020A9E7001002400070004068
:10110000000042422DE9F0470F46050069D04A4EE3
:10111000306800F00700B84209D2306820F00700BC
:1011200038433060306800F00700B84259D1287861
:10113000424C800705D56068A96820F0F00008439C
:1011400060602878C0073DD06968012001290DD072
:10115000022923D05FF0020393FAA3F2B2FA82F2DB
:1011600042F02002520904D0226803E04FF4003319
:10117000F2E7626A93FAA3F3B3FA83F303F01F036F
:10118000984002422DD0606820F003000843606060
:10119000FFF770FE804641F288390CE04FF0007393
:1011A000DAE700BFFFF766FEA0EB0801494502D968
:1011B0000320BDE8F0876068696800F00C00B0EBC0
:1011C000810FEFD1306800F00700B8420BD93068CA
:1011D00020F0070038433060306800F00700B84264
:1011E00001D00120E5E72878400705D56068E96867
:1011F00020F4E060084360602878000706D5606846
:10120000296920F4605040EAC100606000F04CF8A9
:101210006168F02292FAA2F201F0F001B2FA82F2D1
:10122000D140074A515CC840064908600020FFF7DA
:1012300047FE0020BDE700000020024000100240F1
:1012400078390008A000002008480949006849686A
:101250004FF4E06292FAA2F201F4E061B2FA82F293
:10126000D140044A515CC84070470000A0000020F3
:101270000010024088390008084809490068496898
:101280004FF4605292FAA2F201F46051B2FA82F283
:10129000D140044A515CC84070470000A0000020C3
:1012A0000010024088390008144B10B55A681448E1
:1012B00002F00C0104291DD008291BD14FF4701431
:1012C00094FAA4F402F47011B4FA84F4E1400D4CE1
:1012D000DB6A615C0F2494FAA4F403F00F03B4FA00
:1012E00084F4E340074C1034D203E35C03D5B0FB35
:1012F000F3F0484310BD0448484310BD00100240BD
:1013000000127A005839000800093D002DE9F84F15
:10131000040071D02078FB4DC0074FF0010625D0A6
:1013200068687704C0F38100012807D06868C0F3BB
:10133000810002281BD16868C00318D597FAA7F06E
:10134000B0FA80F040F02000400901D0286800E0A9
:10135000686A97FAA7F1B1FA81F101F01F0106FA64
:1013600001F1084265D060680028D2D061E0606871
:10137000B0F5803F0BD010B1B0F5A02F17D0286882
:1013800020F480302860286820F4802002E028685B
:1013900040F480302860E86AA16820F00F0008431C
:1013A000E862606820B3FFF765FD80460AE02868C0
:1013B00040F480202860EAE7FFF75CFDA0EB08001E
:1013C000642872D897FAA7F0B0FA80F040F02000B5
:1013D000400901D0286800E0686A97FAA7F1B1FADD
:1013E00081F101F01F0106FA01F10842E4D020E08A
:1013F000FFF740FD804607E0C7E000BFFFF73AFD7A
:10140000A0EB08006428DCD897FAA7F0B0FA80F0C7
:1014100040F02000400901D0286800E0686A97FA8F
:10142000A7F1B1FA81F101F01F0106FA01F10842BA
:10143000E4D12078DFF8D08280074FF0000A4FF027
:10144000020759D568684FF0F80B10F00C0F07D061
:101450006868C0F3810002281BD16868C00318D4F3
:1014600097FAA7F0B0FA80F040F02000400901D0D0
:10147000286800E0686A97FAA7F1B1FA81F101F0F3
:101480001F0106FA01F108422BD0206901287CD106
:1014900027E0206988B396FAA6F0B0FA80F048F801
:1014A0002060FFF7E7FC814606E055E1FFF7E2FC2C
:1014B000A0EB0900022884D897FAA7F0B0FA80F0D0
:1014C00040F02000400901D0286800E0686A97FADF
:1014D000A7F1B1FA81F101F01F0106FA01F108420A
:1014E000E4D028689BFAABF26169B2FA82F220F08C
:1014F000F80091400843286025E0FFE796FAA6F13E
:10150000B1FA81F148F821A0FFF7B4FC814605E06B
:10151000FFF7B0FCA0EB09000228CCD897FAA7F09F
:10152000B0FA80F040F02000400901D0286800E0C7
:10153000686A97FAA7F1B1FA81F101F01F0106FA82
:1015400001F10842E4D1207800076AD5A069A0B370
:1015500096FAA6F0B0FA80F008EB8000C0F880643C
:10156000FFF788FC814605E0FFF784FCA0EB09004B
:101570000228A0D897FAA7F0B0FA80F040F06000F7
:10158000B6EB501F02D128680CE077E197FAA7F07C
:10159000B0FA80F040F06000B7EB501F01D1286A2C
:1015A00000E0686A97FAA7F1B1FA81F101F01F0132
:1015B00006FA01F21042D7D033E0FFE796FAA6F020
:1015C000B0FA80F008EB8000C0F880A4FFF752FC6E
:1015D000814605E0FFF74EFCA0EB090002289CD8ED
:1015E00097FAA7F0B0FA80F040F06000B6EB501F19
:1015F00001D128680BE097FAA7F0B0FA80F040F02C
:101600006000B7EB501F01D1286A00E0686A97FAC2
:10161000A7F1B1FA81F101F01F0106FA01F21042BF
:10162000D8D12078400774D5E8694FF00009C00090
:1016300009D4E86940F08050E861E8694FF0010999
:1016400000F08050009031480168C90512D401684B
:1016500041F480710160FFF70DFC834606E000BF96
:10166000FFF708FCA0EB0B00642875D8274800683A
:10167000C005F5D5E06801280AD008B1052811D0C9
:10168000286A20F001002862286A20F0040002E0A5
:10169000286A40F001002862E068C8B3FFF7EAFB5F
:1016A00083460DE0286A40F004002862F0E700BF9E
:1016B000FFF7E0FBA0EB0B0141F2883081424BD8F1
:1016C00097FAA7F0B0FA80F040F04000B6EB501F58
:1016D00001D128680BE097FAA7F0B0FA80F040F04B
:1016E0004000B7EB501F01D1286A00E0686A97FA02
:1016F000A7F1B1FA81F101F01F0106FA01F21042DF
:10170000D6D035E000100240000042420070004098
:1017100000E034E0FFF7AEFB834607E0FFF7AAFBEB
:10172000A0EB0B0141F28830814215D897FAA7F05F
:10173000B0FA80F040F04000B6EB501F01D12868AD
:101740000CE097FAA7F0B0FA80F040F04000B7EB59
:10175000501F02D1286A01E083E0686A97FAA7F176
:10176000B1FA81F101F01F0106FA01F21042D5D160
:10177000B9F1000F03D0E86920F08050E861E0691A
:1017800080B36968C1F38101022977D04FF080717D
:101790004F00022809D091FAA1F0B0FA80F048F881
:1017A00020A0FFF767FB04465EE050468A4691FAA8
:1017B000A1F1B1FA81F1C14648F82100FFF75AFBC7
:1017C000804605E0FFF756FBA0EB0800022848D84A
:1017D00097FAA7F0B0FA80F040F02000400902D05C
:1017E000286801E056E0686A97FAA7F1B1FA81F13A
:1017F00001F01F0106FA01F10842E3D1D4E9081013
:101800000843696821F47411084368609AFAAAF0E1
:10181000B0FA80F049F82060FFF72CFB044604E0A2
:10182000FFF728FB001B02281BD897FAA7F0B0FA95
:1018300080F040F02000400901D0286800E0686A8C
:1018400097FAA7F1B1FA81F101F01F0106FA01F14F
:101850000842E5D01EE000BFFFF70CFB001B02288A
:1018600002D90320BDE8F88F97FAA7F0B0FA80F00C
:1018700040F02000400902D0286801E00CE0686ACE
:1018800097FAA7F1B1FA81F101F01F0106FA01F10F
:101890000842E1D10020E5E70120E3E710B5401E52
:1018A000B0F1807F01D3012010BD4FF0E0246061D2
:1018B0000F21601700F0B8F90020A0610720206117
:1018C000002010BD10B5040003D094F8690010B1D9
:1018D00007E0012010BD002084F86800204600F0D9
:1018E00027F8242084F869002068016821F00101AC
:1018F0000160204600F09CFA0128EBD0606A10B12C
:10190000204600F003FA2068416821F490414160CC
:101910002068816821F02A0181602068016841F017
:10192000010101602046BDE8104000F053BA0000FC
:10193000F0B587B0044614216846FEF76AFC1E4FD6
:10194000266800221D490223032407254FF09040FA
:10195000BE4211D18E6946F480468E618E6906F4CE
:10196000804605964E6946F400364E61496901F499
:1019700000310591610214E0114FBE4219D1CE69C8
:1019800046F40036CE61CE6906F4003605964E69FF
:1019900046F400364E61496901F40031059148F280
:1019A0000401CDE9001302AE694686E83400FFF772
:1019B00097F907B0F0BD0000003801400010024068
:1019C000004400402DE9F84F044690F86A009A461A
:1019D00016460D46202866D1EDB1E6B194F86800B0
:1019E000012860D0012084F868000027E7662220E3
:1019F00084F86A004C34FFF73DFAA6818146E681FF
:101A000054F8440C4FF48058FF214C3C404508D119
:101A1000206918B10DE00120BDE8F88F40F2FF10F9
:101A20000DE07F2218B1B0F1805F05D009E0206998
:101A300050B9A4F85C1004E0206928B13F20A4F854
:101A40005C00B4F85C601DE0A4F85C20F9E700BF1E
:101A5000B4F85A00401EA4F85A004B460022202138
:101A60002046CDF800A000F089FA08B10320D3E7A2
:101A7000A068404501D1206978B12068808C304051
:101A800005F8010BB4F85A000028E1D1202084F8B1
:101A90006A0084F868700020BEE72068808C3040BF
:101AA00025F8020BEEE70220B6E72DE9F8430446DD
:101AB00090F869001F4616460D4620284DD1CDB13D
:101AC000C6B194F86800012847D0012084F8680066
:101AD0004FF00008C4F86C80212084F8690050346D
:101AE000FFF7C8F924F8026B814624F852694FF4D5
:101AF000805618E00120BDE8F883B4F85200401E7B
:101B0000A4F852004B46002280212046009700F0A6
:101B100035FAA0B9A068B04201D1206988B115F8A2
:101B2000010B21680885B4F852000028E5D14B4626
:101B3000002240212046009700F020FA30B1032017
:101B4000D9E735F8020BC0F30800EAE7202084F853
:101B5000690084F868800020CDE70220CBE7FEE72B
:101B600010B586B014216846FEF753FB154841694D
:101B700041F480014161416901F4800105914169AD
:101B800041F400314161416901F40031059141693D
:101B900041F48021416140690B4C00F480200590A4
:101BA000002208212046FFF75FF90820009001205D
:101BB0000021CDE90101039169462046FFF790F825
:101BC00006B010BD00100240000400480948084952
:101BD00001604FF4E1314160002181600C22C1605D
:101BE000C0E904128161C16101624162FFF76ABE0E
:101BF00000380140A40000200948084901604FF462
:101C000016414160002181600C22C160C0E90412CC
:101C10008161C16101624162FFF754BE004400402E
:101C200014010020FEE770470907090E002806DAB4
:101C300000F00F0000F1E02080F8141D704700F163
:101C4000E02080F80014704770477047FFF71EB916
:101C500030B595B028216846FEF7DBFA14210AA8B2
:101C6000FEF7D7FA18210FA8FEF7D3FA022000904A
:101C700001251020CDE90450002407946846FFF7A1
:101C800045FB0F20CDE90A040C940D9400210AA80D
:101C90000E94FFF737FA0FA80F951194FFF778F914
:101CA00015B030BD1448016841F47001016013485B
:101CB000016841F0010101604168114A1140416031
:101CC0000168104A11400160016821F4802101601F
:101CD000416821F4FE014160C16A21F00F01C16237
:101CE000016B094A11400163002181600249C00370
:101CF000803908607047000088ED00E00010024065
:101D00000CC07FF8FFFFF6FECCFC00FF90F824101B
:101D1000C90706D001684A68836A22F400321A4370
:101D20004A6090F82410890706D501684A68C36A9A
:101D300022F480321A434A6090F82410490706D5ED
:101D400001684A68036B22F480221A434A6090F8C3
:101D50002410090706D501684A68436B22F4004243
:101D60001A434A6090F82410C90606D501688A68AB
:101D7000836B22F480521A438A6090F824108906FB
:101D800006D501688A68C36B22F400521A438A6040
:101D900090F82410490611D501684A68036C22F4B2
:101DA00080121A434A60016CB1F5801F06D10168A8
:101DB0004A68436C22F4C0021A434A6090F8241027
:101DC000090606D501684A68806C22F400220243A5
:101DD0004A607047F8B500260446C666FFF74AF821
:101DE0000546206800686FF07E47000708D52B463F
:101DF00000224FF400112046009700F0BFF860B9B0
:101E00002068006840070AD52B4600224FF4800165
:101E10002046009700F0B2F808B10320F8BD20205A
:101E200084F8690084F86A0084F868600020F8BDCE
:101E30002DE9F041044610202369A268E6691A439F
:101E40006369002133431A4323680D461E68444FDB
:101E50003E4016431E6022685368E66823F44053F0
:101E600033435360236AA2691A4323689E6826F4A9
:101E7000306616439E603B4B22689A4210D13A4B23
:101E80001B6B13F0030311D0012B05D0022B05D0DF
:101E9000032B0CD102200AE0042008E0082006E011
:101EA000324B9A4202D0324B9A4200D10020E6696E
:101EB0004FF400439E4226D109281DD2DFE800F0EE
:101EC0000508121C151C1C1C1800FFF7BDF901E0C9
:101ED000FFF7D2F94100606801EB5001B1FBF0F06F
:101EE00081B20AE023496068F6E7FFF7DDF9F1E720
:101EF0004FF480316068EFE7012521F00F00C1F356
:101F0000420108431CE0092825D2DFE800F005085B
:101F10000B24102424241C00FFF796F909E0FFF796
:101F2000ABF906E01449606801EB50010EE0FFF7E1
:101F3000BBF90146606801EB5001B1FBF0F080B2E3
:101F40002168C86008E0606803EB5001B1FBF0F065
:101F500080B2D06000E001252846BDE8F081000095
:101F6000F369FFEF003801400010024000440040D8
:101F7000004800400024F40000127A002DE9F041EE
:101F8000984617460E460446069D1DE0681C1BD069
:101F90002DB1FEF76FFFA0EB0800A84214D920680E
:101FA000016821F4D07101602068816821F001018D
:101FB0008160202084F8690084F86A00002084F899
:101FC00068000320BDE8F0812068C06936EA00009F
:101FD00004D00020B842D9D00020F3E70120F9E76F
:101FE000FEE700000FB41CB50246002007AC002934
:101FF0000BD0491ECDE90021054B6A4621460698C3
:1020000000F0F8F8009A002111701CBC5DF814FB78
:10201000232900080000000000B583B09FED060BE7
:102020000A4601468DED000B6846FEF792F99DEDDC
:10203000000B03B000BD0000000000000000000025
:1020400002E008C8121F08C1002AFAD17047704781
:10205000002001E001C1121F002AFBD170470000DF
:102060002DE9FF5F82B00021DDE90430020DDDF8CB
:1020700040B0034318D044F61050A2F2FF3242435E
:102080001514119801281FD0A5EB0B00401C5FEA26
:10209000000A4FF000064E4FDFF83891B046504628
:1020A00015D5CAF1000413E0119801244AA30128B0
:1020B00001D16FEA0B010298119AC0E90031C0E921
:1020C000024206B0BDE8F09FCBF10000DFE7044616
:1020D0000021404A491842EB0450CDE9001012E0BB
:1020E000E00707D032463B4640464946FEF70BFA2A
:1020F0008046894632463B4610461946FEF703FAAB
:1021000006460F466410002CEAD1DDE90401DDE942
:102110000023BAF1000F06DAFEF7F5F942464B4606
:10212000FEF7F1F905E0FEF760FA42464B46FEF78E
:102130005CFA04460E460022284BFEF7DDFA03D86F
:102140004FF0FF30014607E00022254B2046314684
:10215000FEF732F9FEF7B8FA102409E0002C0ADB8A
:102160000A220023FEF7A9F8039B30321A55641E99
:1021700050EA0102F2D1641C039AC4F11103144421
:10218000119A012A03D0012208430DD10AE0084325
:1021900004D000204FF0110B119072E7A3EB0B0558
:1021A0006D1E0DE05B4504DD4FF0000205F10105F9
:1021B00004E003DA4FF00002A5F10105002AECD09B
:1021C00002981199C0E90231C0E9004579E70000A1
:1021D000000014400000F03F300000000000F04319
:1021E0000000E03F30380A2801D20120704700206B
:1021F000704700002DE9FF4F95B09B468946064683
:1022000000250FE2252877D100242746F84A01212E
:10221000059400E0044316F8013F203B01FA03F067
:102220001042F7D130782A2811D06FF02F03307880
:10223000A0F13002092A16D8059A44F0020402EBF4
:10224000820203EB42021044761C0590EFE759F836
:10225000042B0592002A03DA504244F400540590FE
:1022600044F00204761C30782E2816D116F8010F9F
:1022700044F004042A280DD06FF02F023078A0F12A
:102280003003092B09D807EB870302EB4303C71878
:10229000761CF3E759F8047B761C30786C280FD055
:1022A00006DC4C2817D068280DD06A2814D104E029
:1022B000742810D07A280FD10DE044F400140AE0FD
:1022C00044F4801401E044F440147278824202D154
:1022D00004F58014761C761C307866280BD013DC4D
:1022E000582877D009DC002875D04528F6D0462834
:1022F000F4D047281AD19DE118E0632835D064282E
:1023000079D0652812D195E1702873D008DC672850
:10231000F1D069286FD06E280DD06F2806D1B5E0B6
:1023200073282CD0752875D0782874D05A46179900
:1023300090476D1C75E1C4F30250022809D00328B0
:102340000DD0D9F8001004280DD00D6009F1040952
:1023500067E1D9F80010EA17C1E90052F6E7D9F8A9
:1023600000100D80F2E70D70F0E719F8041B8DF8EE
:10237000001000208DF80100EA46012003E059F822
:1023800004AB4FF0FF3061074FF0000102D40DE0C5
:1023900008F101018846B9420FDA8045F8DB1AF8E6
:1023A00008100029F4D108E008F1010188468142B3
:1023B000FADB1AF808100029F6D105985B46A0EB65
:1023C000080721463846179A00F094FA284400EB93
:1023D000080507E04DE029E10DE01AF8010B5A4627
:1023E00017999047B8F10108F7D25B462146384665
:1023F000179A13E142E00A220092C4F302524FF00E
:10240000000A022A08D059F804CB032A4FEAEC71DB
:102410000AD00DE029E02AE009F1070121F00702C6
:10242000F2E802C1914609E00FFA8CFC4FEAEC7128
:10243000042A03D14FFA8CFC4FEAEC71002907DA29
:102440000A460021DCF1000C61EB02012D2202E0C2
:10245000220504D52B228DF80420012203E0E20797
:1024600001D02022F7E7904659E00A2102E010222D
:102470000DE010214FF0000A00910BE010224FF008
:10248000000A44F004040827009203E008224FF0F9
:10249000000A0092C4F30252022A05D059F804CB74
:1024A0000021032A08D009E009F1070121F0070201
:1024B000F2E802C1914605E01FFA8CFC042A01D122
:1024C0000CF0FF0C4FF00008220728D5702806D02A
:1024D000009B83F0100353EA0A0305D00EE040226C
:1024E0008DF80420012208E05CEA010206D03022C7
:1024F0008DF804208DF8050002229046009B83F0A1
:10250000080353EA0A030AD15CEA010201D1620717
:1025100005D530228DF804204FF001087F1E582881
:1025200004D034A003900EA802900DE036A0F9E785
:1025300053466046009AFDF7C0FE84460398825CCD
:102540000298401E029002705CEA0100F0D10298ED
:1025500006A9081A00F1200A600702D524F4803485
:1025600000E00127574502DDA7EB0A0000E000204C
:1025700000EB0A01009005984144401A0590E003E1
:1025800006D45B462146179A059800F0B3F9054436
:10259000002706E001A85A46C05D179990476D1CB8
:1025A0007F1C4745F6DBE0030CD55B462146179AB6
:1025B000059800F09FF9054404E030205A46179929
:1025C00090476D1C0099481E00900029F5DC08E03A
:1025D000029802995A460078491C0291179990472F
:1025E0006D1CBAF10001AAF1010AF1DC65E10000FD
:1025F00009280100303132333435363738396162D9
:10260000636465660000000030313233343536379C
:1026100038394142434445460000000000F058F973
:102620000544761C307800287FF4ECAD19B02846BC
:10263000BDE8F08F620700D4062709F1070222F0F7
:10264000070CFCE80223E14603F000485FEA080CAF
:1026500002D00FF2702C0DE05FEA045C02D50FF29D
:10266000682C07E05FEAC47C02D00FF2602C01E026
:10267000AFF2700C4FF0FF3823F00043CDF850C09C
:1026800065280CD006DC452809D046281DD04728EF
:102690003DD13DE0662818D067287ED138E0002182
:1026A000112F01DB112000E0781CCDE9000106A903
:1026B0000EA8FFF7D5FCDDE90F010E9A039100216A
:1026C000009207F1010A04914DE04FF0004000979D
:1026D000CDE9011006A90EA8FFF7C2FCDDE90F0243
:1026E00003920E9B11990022DDF80CA00093049236
:1026F00011B9791C00EB010AB7EB0A0004D4C0F150
:10270000FF3007F1010A0490AAEB0700019044E0B2
:10271000012F00DA01270021112F01DD112000E037
:102720003846CDE9000106A90EA8FFF799FCDDE9BE
:102730000F010E9A0391002104910092BA462107DD
:102740000CD40399514500DA8A46BAF1010F05DD30
:10275000009AAAF10101515C302908D0B84202DA8E
:1027600010F1040F06DA0121CDE9011015E0AAF1FC
:102770000101E9E7002805DC049901440491AAEB72
:10278000000102E0411C514500DD8A460499401ACF
:10279000401C01904FF000400290200704D40198A3
:1027A000504501DBCDF8048000208DF84F000298E1
:1027B0000DF14F07B0F1004F25D02B200E9002985D
:1027C0004FF0020800280CDA404202902D200E90B3
:1027D00007E00A210298FDF75AFD3031029007F810
:1027E000011DB8F10001A8F10108F2DC02980028EF
:1027F000EFD1791E0E980870307800F0200040F07C
:10280000450007F8020D12A8C01B00F10708149834
:10281000007800B1012000EB0A01019801EBE071A2
:1028200005984144401A401E0590E00306D45B46DB
:102830002146179A059800F05DF805441498007831
:1028400018B15A46179990476D1CE00324D55B4692
:102850002146179A059800F04DF805441CE00498AD
:10286000002807DBDDE90301884203DD0098405CB6
:10287000179901E0179930205A469047049805F1BE
:102880000105401C04900198401E019004D12E20A7
:102890005A46179990476D1CBAF10001AAF1010A36
:1028A000DDDC05E017F8010B5A46179990476D1CBF
:1028B000B8F10001A8F10108F4DC5B462146179A43
:1028C0000598ABE62D0000002B0000002000000062
:1028D0002DE9F041044600251E461746880404D41D
:1028E00005E039462020B0476D1C641EF9D5284606
:1028F000BDE8F0812DE9F041044600251E469046D2
:10290000C80301D5302700E02027880404D505E05E
:1029100041463846B0476D1C641EF9D52846BDE8CF
:10292000F0814A68002A06D00A68531C0B601070B8
:102930004868401E486070472DE9F0411C46034638
:10294000DDE907651A48DDF824C0069FC0E90634B2
:10295000078006624580C0E9091213460022C0F8CC
:102960002CC01146134800F02DFA1148124B30309C
:102970000021C1601A68026100F11402C2E903106B
:102980002830C0E9031218603946204600F0D0F81C
:102990002946304600F0CCF8002239462046FEF7A2
:1029A00063FA29463046BDE8F0410022FEF75CBAE2
:1029B00000000020ED3800088401002008B5094817
:1029C00001231A4669468069FEF7FCFF20B99DF88D
:1029D0000010054800F0DCF900F008F800F024F8D9
:1029E00008BD0000000000208401002070B50D4CDF
:1029F000606880B1FEF73EFA0546A068854209D3BB
:102A00002188E069FEF72CFAFEF73AFA616801FBCB
:102A10000050A06070BD2188E069BDE870400022D0
:102A2000FEF722BA000000203EB5FEF723FA164C4E
:102A30000546E068002824D02069854221D36069DA
:102A400048B160681149CDE90050D4E90923104824
:102A500000F0C0F80BE0E26AA2B1A16A60680091E0
:102A6000CDE901500B490A48636A00F0B3F8606988
:102A700040B100206061FEF703FAE16801FB0050FD
:102A800020613EBD0120F5E700000020F439000878
:102A900084010020683A000810B586B00DF1080CDA
:102AA00008A40BA30BA211A18CE81E0011A213A174
:102AB000CDE9001213A216A1436900F0F9F906B09E
:102AC00010BD00006633303374657374000000007D
:102AD000617070004665622032302032303139201A
:102AE00031373A33313A32350000000066775F699A
:102AF0006400000073746D3332000000617263681B
:102B00000000000066775F76657273696F6E000083
:102B10007B25513A25512C2025513A25512C202531
:102B2000513A25512C2025513A25517D00000000B5
:102B300070B5234D234E244C244B254A86B0B0F16A
:102B4000904F0AD0A84210D1556945F480255561AF
:102B5000556905F48025059512E0536943F4003367
:102B60005361526902F4003213E0B04208D1546953
:102B700044F400245461546904F4002405940AE0E8
:102B8000A04208D1536943F480135361526902F49F
:102B90008012059209E0984207D1536943F48003FB
:102BA0005361526902F48002F3E70091012101911F
:102BB0000021029103916946FEF792F806B070BDBC
:102BC0000004004800080048000C004800140048B9
:102BD000001002400FB4142230B587B004460A201A
:102BE0008DF814000A496846FDF7FAFA01940CAA18
:102BF00068460B9900F086FDD4E9012305460121C2
:102C000005A8984707B0284630BC5DF814FB0000C3
:102C10003039000810B5029C4360C0E90212054932
:102C2000CC6002680A6101601431C86002680A6100
:102C3000016010BD6C0000202DE9F0419CB0002621
:102C400090460F46044619961422334907A81A964F
:102C5000FDF7C6FA182101A80894FDF7DAFA07A8CB
:102C600005901AA8009019AB2CA24146384600F0F6
:102C7000E9FA199860B11A98002809DDE368002B79
:102C800003D041463846626898471CB0BDE8F081E1
:102C9000322000900CAB24A24146384600F0F0FBF5
:102CA000051E07DC3B46424622A12046FFF792FF65
:102CB0002661EAE704A8009003AB29A24146384602
:102CC00000F0C0FA02A8009001AB27A241463846A6
:102CD00000F0B8FA246809E06068A84205D12A46E5
:102CE0000CA92068FDF7A7FA48B12469002CF3D19C
:102CF00020A325A2254901A800F09EF8C5E7019868
:102D000008B908A00190E0680690A16801A888476A
:102D1000002CEDD0B9E7000044390008242E72657C
:102D200073756C7400000000242E6D6574686F6408
:102D3000000000007B226572726F72223A7B226370
:102D40006F6465223A2D33323730302C226D657333
:102D500073616765223A252E2A517D7D00000000AF
:102D6000242E696400000000242E706172616D736E
:102D7000000000006D6574686F64206E6F742066DB
:102D80006F756E640000000025510000A780FFFFF2
:102D900070B50446006900250A46FF2800DD25615C
:102DA00004F114010A2A05D0206942542069401C0C
:102DB000206170BD2269012A02DD2046FFF73CFF39
:102DC000256170BD08B5009313460A4601460248C6
:102DD000FFF720FF08BD0000840100202DE9F0412D
:102DE00007460868021D0A6006680025346812E07C
:102DF0003068A04205D0012209A1384600F0FEFB50
:102E000005442068FDF710FA02463846216800F0B4
:102E100039FC24690544002CEAD12846BDE8F0813C
:102E20002C00000030B40D46416814462846D1E914
:102E30000123214630BC18470FB438B5C268044698
:102E4000002A15D0009107AD0BA1A368206900F0FE
:102E50004FFC0699206919B12A4600F053FC03E0A3
:102E600010A211A100F044FC10A1206900F040FC68
:102E700038BC5DF814FB00007B226964223A252EE1
:102E80002A732C226572726F72223A7B22636F64FE
:102E900065223A25642C226D657373616765223A59
:102EA0000000000022220000257300007D7D0A0042
:102EB0000FB470B5C2680446002A14D006AD0BA149
:102EC000A368206900F014FC0599206919B12A460D
:102ED00000F018FC03E00BA20CA100F009FC0CA10F
:102EE000206900F005FC70BC5DF814FB7B2269646E
:102EF000223A252E2A732C22726573756C74223A3D
:102F0000000000006E756C6C00000000257300006E
:102F10007D0A000010B504460023D4E9000109A28F
:102F200000F0B6F908B1012200E00022074841880C
:102F3000006AFDF799FF2046BDE810400021FFF729
:102F4000B7BF0000242E6F6E0000000000000020BC
:102F500010B5064A04465188106AFDF781FF2046E5
:102F6000BDE810400021FFF7A3BF000000000020D3
:102F70001FB5FDF793FFFEF76BFEFEF7F1FDFEF7C1
:102F80003BFEFEF723FE08A101200A4B0822CDE9F3
:102F90000201CDE9002308A209A10C48FFF7CCFCEF
:102FA000FFF70CFDFCE700002F6170702F746F704D
:102FB0006963000000040048312E302E300000000C
:102FC000663330337465737400000000A400002081
:102FD0002DE9F04F814689B000201F4616468A46EB
:102FE000079004466FF0010B0690F4E019F80450C6
:102FF000A0462846202D74D0092DFCD00A2DFAD0E9
:103000000D2DF8D0079931B101296BD002296AD072
:10301000032939D1B7E07B2D1FD05B2D27D05D2D43
:1030200033D0742D42D06E2D4DD0662D5CD02D2D19
:1030300004D000BFA5F13000092863D8002000901B
:1030400009EB040005466946FEF7E6FF009810B15B
:10305000401B0444641E0C2063E00699142909DA1D
:10306000069A01A988540699491C06919CE0069984
:10307000142903DB584609B0BDE8F08F069A01A970
:1030800088540699491C06919CE0069900295ADD4E
:10309000069A01A9114411F8011C5B2953D16AE079
:1030A0007EB3012322464946009743E0E01C504589
:1030B000C0DA09EB040004224AA1FDF7BCF800289D
:1030C00041D10D200BE0E01C5045B3DA09EB0400C0
:1030D000042246A1FDF7AFF80028ABD10F20E41C75
:1030E0001FE077E02BE04AE0201D504576DA09EB3F
:1030F000040005223FA1FDF79EF820BB0E20241DF1
:103100000FE018E0222D69D1AAEB040109EB0400BD
:10311000401C491E00F0F3F90028ACDB04440B20EE
:10312000641C069949B936B1A4EB080342464946E6
:103130005B1C0097B047601C9DE7032135E0222D02
:1031400002D07D2810D049E0AAEB040109EB04006D
:10315000401C491E00F0D3F900288CDB04440221F6
:103160000120641C07912DE0069A01A9114411F871
:10317000011C7B2932D1511E0691DED190E73A28FD
:103180002CD1002111E00699002927DD2C2D04D037
:103190005D2D0CD07D2D0AD020E0069A01A91144A6
:1031A00011F8011C7B29ECD1012107910AE0069A54
:1031B00001A9114411F8011C891C81420ED1511E34
:1031C0000691DBD036B1A4EB0803424649465B1CAE
:1031D0000097B047641C5445FFF608AF4FF0FF302E
:1031E00049E7000074727565000000006E756C6C34
:1031F0000000000066616C736500000030B50BA430
:103200000DA309B122460BE01A4609E0854206D11A
:1032100011B1101B185C30BDD01A205C30BD521C9F
:103220001578002DF2D1002030BD0000080C0A0DE9
:10323000095C222F0000000062666E72745C222F0F
:10324000000000002DE9F0418AB014460F46804688
:103250001D4628220C496846109EFCF7C1FF0094C9
:10326000CDE907562078242807D16B46074A39460E
:103270004046FFF7ADFE002803DA00200AB0BDE8A3
:10328000F0810998C0B2F9E708390008B1320008A6
:1032900038B51C4600230093FFF7D4FF0D2802D059
:1032A0000E2802D002E0012400E00024204638BDB0
:1032B0002DE9F0411646069C1D46626A002A12D18D
:1032C0007B2831D05B2810D02C2838D08B19A0F166
:1032D0000B0701284AD07D287ED05D287FD09BE057
:1032E000A068401CA060BDE8F081D4E902018842DA
:1032F0001AD1D4E90001405C5B2815D1002020617F
:10330000206808440021401CFEF786FE51EC100B9B
:10331000FCF79EFF60612169814205D1E068401C95
:10332000E0606068C01C6060D4E90001405C002877
:10333000D6D1D4E902018842D2D1A661D0E7D4E93E
:103340000210401C8142CED12069401C206161697D
:103350008842C8D1D4E900100A5C00F101005D2A5E
:103360006060F9D1E068401CE060BCE7D4E902C2CB
:10337000521C944550D1D4E9002C12F80CE0BEF157
:103380002E0F49D111F806E0BEF1220F44D12E4490
:10339000314411F8011C22293ED102EB0C0101F14C
:1033A000010C002200E0521C1CF802601EB12E2EFF
:1033B00001D05B2EF7D1AE1EB2422DD1581CAA1EF1
:1033C000491CFCF738FF00288DD1E068401CE06004
:1033D00060686D1E284400E001E0606083E7A26839
:1033E000521EA260D4E900355B5D002BBDD1E368BD
:1033F0009A42BAD1A269521CB7D0801E6062E069BD
:1034000010B1A26911440160206A0028ADD0A16901
:10341000711A491C016066E7092FA6D2D4E902128D
:103420009142A2D1D4E90012895C00299DD1606249
:10343000E06900B10360206A002896D0056052E779
:1034400000B52DED028B83B002AB0093B0EE408A45
:10345000F0EE608A01ABFFF7F5FE0C2807D10021E2
:103460000198FEF7D9FDB0EE408AF0EE608A03B015
:10347000B0EE480AF0EE680ABDEC028B00BD000019
:103480002DE9FE4F1C4602AB00930C9E01ABFFF7EB
:10349000D9FE0B2802D00020BDE8FE8F0198002540
:1034A000029FA04600F1010A2C464FF0FF39BF1ED3
:1034B00018E000BF1AF805005C280FD1691CB9425A
:1034C0000CDA0AEB050000214078FFF797FE18B1EF
:1034D00008F804006D1C03E04846DDE708F8040026
:1034E000641C6D1CBD4201DAB442E3DBB442F3DA82
:1034F000002E02DD002108F804102046CCE72DE95B
:10350000F04100240E460546671E12E0285D5C2847
:103510000AD1601CB0420BDA281901214078FFF76C
:103520006DFE08B1641C03E0285D20B1222805D09F
:10353000641CB442EADB3846BDE8F0812046FBE774
:103540002DE9F84F15468A4603688146284F012227
:1035500028A19847064600243EE000BF1AF8042040
:10356000631CAB4203DA0AEB0400417800E000215F
:1035700004F1020CAC4503DA0AEB0400807800E0A9
:1035800000200FF27408D8F80080CDF8008007EB17
:10359000A2089207920E98F8008042EA21128DF854
:1035A0000080BA5C8DF80120AB4206DA0907890E6B
:1035B00041EAA011795C8DF80210AC4504DA00F004
:1035C0003F00385C8DF80300D9F8003048460422EB
:1035D000694698470644E41CAC42BFDBD9F800308A
:1035E0004846012203A198473044BDE8F88F000007
:1035F000F43A00082200000000003D3D036818472F
:1036000010B58CB004460A468DED000B282102A8A7
:10361000FEF7E8FC0246236802A9204698470CB052
:1036200010BD000010B586B004460AB107A200E044
:1036300007A20B4614216846FEF7D4FC0246236815
:1036400069462046984706B010BD0000256400007A
:103650002575000010B586B004460AB107A200E047
:1036600007A20B4614216846FEF7BCFC02462368FD
:1036700069462046984706B010BD0000256C6400DE
:10368000256C75002DE9F843174688460368064601
:10369000012215A19847044600251BE018F80500F3
:1036A0000121FFF7ABFD10F0FF008DF8000009D0FD
:1036B000336801220DA1304698470444012269462F
:1036C000336803E0336808EB050101223046984770
:1036D00004446D1CBD42E1DB3368012202A1304687
:1036E00098472044BDE8F883220000005C000000F9
:1036F0000FB410B504AA039900F004F810BC5DF8EB
:1037000014FB00002DE9F84F002590460F46834634
:103710002C4608E025280CD07919012258466D1C4A
:10372000FFF76CFF0444785D0028F3D12046BDE824
:10373000F88F6D1C4FF000097E5D6C2E03D1781957
:103740004FF001094678512E1DD078198246032288
:1037500046A1FCF770FD08B3642E2BD0752E27D040
:10376000422E3AD0732E47D05046032240A1FCF798
:1037700062FD70B3672E4ED0662E55D0562E5FD0A8
:103780004D2E67D06FE058F8046B3046FCF74CFDC7
:10379000024631465846FFF775FF63E008F1040022
:1037A000D8F8002002C880465846FFF76BFF2FE08C
:1037B000002200E0012208F10400D8F80010804641
:1037C000B9F1000F584605D0FFF744FF04446D1CC3
:1037D00049E014E0FFF726FF44E058F8041B09B164
:1037E00024A600E025A63046FCF71EFD0246314621
:1037F0005846FFF703FF35E058F8046BF3E708F18C
:103800000400D8F8002002C880465846FFF7F6FEAC
:103810000444AD1C27E008F1070020F0070019A1BF
:10382000B0EC020B804607E008F1070020F007002B
:1038300015A1B0EC020B80465846FFF7E1FE11E0FF
:1038400008F10400D8F8002002C880465846FFF767
:1038500077FE07E04046CDF8008004C80090694636
:103860005846904704446D1C5DE700002E2A510025
:103870002E2A7300747275650000000066616C7317
:10388000650000002567000025660000024A03A1CC
:103890004369FFF70DBB0000DD2D00085B254D5D82
:1038A0000000000010B503C89FED070B08A2FFF74A
:1038B000C7FD51EC100BFCF7CBFC002803DB0A49D9
:1038C00048600020886010BD000000000000F0BFCC
:1038D000242E6170702E626C696E6B5F7065726908
:1038E0006F645F6D730000000000002010B50C468F
:1038F0008AB2014603484FF47A738069FEF7D5F81F
:10390000204610BD00000020000000000100000063
:1039100000000000000000000000000000000000A7
:10392000FFFFFFFF0000000000000000000000009B
:10393000252E00080000000000000000000000002C
:1039400000000000252E000800000000000000001C
:10395000000000000000000002030405060708093B
:103960000A0B0C0D0E0F10100102030405060708C8
:10397000090A0B0C0D0E0F100000000000000000E3
:103980000102030406070809000000000102030405
:10399000DDDDDDDDDCBBBBDDDDDDDDDDDDDDDDDD9C
:1039A00098888888888888887777777777888888DC
:1039B0008555555666666666666666666668888874
:1039C0008333333222222222222222222228888D6D
:1039D000536861646F772E44656C74610000000069
:1039E0004C45442E546F67676C6500004C45442E6F
:1039F000536574007B226D6574686F64223A2022DF
:103A0000536861646F772E5265706F7274222C2038
:103A100022706172616D73223A207B226170702284
:103A20003A207B226E616D65223A2025512C20229E
:103A300076657273696F6E223A2025512C202275AB
:103A40007074696D655F6D73223A2025752C202294
:103A5000626C696E6B5F706572696F645F6D732213
:103A60003A2025757D7D00007B226D6574686F644A
:103A7000223A20224D5154542E507562222C20227D
:103A8000706172616D73223A207B22746F7069637A
:103A9000223A2025512C2022716F73223A20302C9B
:103AA00020226D657373616765223A207B226E6107
:103AB0006D65223A2025512C202276657273696F3C
:103AC0006E223A2025512C2022757074696D655F35
:103AD0006D73223A2025752C2022626C696E6B5F13
:103AE000706572696F645F6D73223A2025757D7D04
:103AF0007D0000004142434445464748494A4B4CFB
:103B00004D4E4F505152535455565758595A616261
:103B1000636465666768696A6B6C6D6E6F707172FD
:103B2000737475767778797A303132333435363745
:103B300038392B2F000000005379732E47657449E4
:103B40006E666F005250432E4C6973740000000083
:103B5000703B000800000020A40000004020000886
:103B6000143C0008A4000020F405000050200008C8
:103B7000000000006400000000000000C409000014
:103B80000000000001000000000000000000000034
:103B90000000000000000000000000000000000025
:103BA000D03900080C000000A53800080000000013
:103BB00000000000EC39000807000000152F000885
:103BC0000000000000000000E03900080A000000CA
:103BD000512F00080000000000000000383B0008E2
:103BE0000B000000992A00080000000000000000FF
:103BF000443B0008080000008D3800080000000069
:103C000000000000010000001000000000000000A3
:043C100000127A0024
:040000050800018965
:00000001FF
