:020000040800F2
:1000000038060020A9010008F31700085717000858
:10001000F1170008EB0C0008091C000800000000A4
:100020000000000000000000000000001718000899
:10003000ED0C000800000000151800081918000851
:10004000C3010008C3010008C3010008C301000880
:10005000C3010008C3010008C3010008C301000870
:10006000C3010008C3010008C3010008C301000860
:10007000C3010008C3010008C3010008C301000850
:10008000C3010008C3010008C3010008000000000C
:10009000000000000000000000000000C301000894
:1000A000C3010008C3010008C3010008C301000820
:1000B000C3010008C3010008C3010008C301000810
:1000C000C3010008C3010008C3010008C301000800
:1000D000C3010008C3010008C301000800000000BC
:1000E000C3010008C3010008C301000800000000AC
:1000F000000000000000000000000000C301000834
:1001000000000000C3010008C3010008C30100088B
:1001100000000000000000000000000000000000DF
:10012000C3010008C3010008C3010008C30100089F
:10013000C3010008000000000000000000000000F3
:10014000000000000000000000000000C3010008E3
:10015000C3010008C3010008C3010008C30100086F
:10016000C3010008C30100080000000000000000F7
:10017000000000000000000000000000000000007F
:1001800000000000C30100080000000000000000A3
:10019000C3010008DFF80CD000F0DCFA004800478B
:1001A000A12B000838060020064880470648004773
:1001B000FEE7FEE7FEE7FEE7FEE7FEE7FEE7FEE717
:1001C000FEE7FEE7A5180008950100082DE9F05F9D
:1001D0000546002092469B468846064681464024B6
:1001E0001BE0284641464746224600F09CF853460D
:1001F0005A46C01A914110D311461846224600F0C3
:1002000083F82D1A67EB01084F4622460120002192
:1002100000F07AF817EB00094E41201EA4F101040A
:10022000DFDC484631462A464346BDE8F09F40EAB7
:1002300001039B0703D009E008C9121F08C0042A64
:10024000FAD203E011F8013B00F8013B521EF9D24B
:100250007047D2B201E000F8012B491EFBD2704773
:100260000022F6E710B513460A4604461946FFF782
:10027000F0FF204610BD421C10F8011B0029FBD1E5
:10028000801A704730B504460020034600E05B1C2E
:10029000934203D2E05CCD5C401BF8D030BD70B51A
:1002A000C1F30A5201F000450024C1F3130140F2EA
:1002B000FF3341F480119A4201DA002070BD40F210
:1002C00033439A42A2F2334203DC524200F02BF84D
:1002D00000E090402C43F1D0404270BD30B50B4659
:1002E000014600202022012409E021FA02F59D4266
:1002F00005D303FA02F5491B04FA02F52844151E3A
:10030000A2F10102F1DC30BD202A04DB203A00FA20
:1003100002F1002070479140C2F1200320FA03F35C
:10032000194390407047202A04DB203A21FA02F05A
:100330000021704721FA02F3D040C2F1200291401F
:1003400008431946704700000FB4002300B589B078
:100350000CA900910B996FF00042CB601E4B0693E5
:100360001E4B07930423CDE901321D4A0892024631
:100370006B46002000F0ACFA09B05DF814FB70B5D4
:1003800086B006464FF0FF300091CDE90101002014
:1003900015460C4604903246694604A8FFF7D4FF80
:1003A00002460498211825B108B1084600E020460D
:1003B0002860049800280DD0002A02DD00988842A9
:1003C00008D0081B0094CDE901043246694604A810
:1003D000FFF7BAFF06B070BD090B0008270B000835
:1003E0009D0700082DE9FE4F804681EA0300C00FFB
:1003F0000C46009021F0004123F00045B8EB0200CC
:10040000A94105D24046214690461C460B4602466D
:1004100023F00040104347D0270DC7F30A00C3F371
:100420000A510290401A019040286BDAC3F313007E
:1004300040F4801B0098924620B10023D2EB030ABF
:1004400063EB0B0B01985946C0F140025046FFF791
:100450005BFF06460D4650465946019A00F08CF95E
:1004600010EB08006141002487EA115284EAE77327
:100470001A4340D0009A62B3019A012A4FEA075208
:1004800015DC001B61EB02014FF0004202EA07524B
:10049000CDE90042001C41F5801132462B4600F0A8
:1004A00062FB03B0BDE8F08F40462146F9E7001B30
:1004B00061EB0201001C41F5801300185B4120181C
:1004C000A2F5001747EB030140EAD570B6196D415C
:1004D00011E06D084FEA360645EAC0754FEA07524B
:1004E000001B61EB0201001C41F5801149084FEA35
:1004F00030000019514132462B4603B0BDE8F04FA1
:1005000000F022BB0098012240000023D0EB020241
:1005100063EBE073009821464FEAE074B8EB00000B
:1005200061EB0401E9E783F000435BE781F0004100
:1005300058E72DE9FE4F81EA030404F0004421F05E
:10054000004100944FF0000B23F0004350EA0104F7
:100550005ED052EA03045BD0C3F30A54C1F30A55D8
:100560002C44A4F2F3340194A0FB0254C1F3130110
:1005700041F48011C3F3130343F4801301FB0244DD
:1005800000FB034E840A970A44EA815447EA8357E2
:10059000A4FB076802958D0A05FB07854FEA932C9B
:1005A00004FB0C542705029D4FEA065847EA16370C
:1005B000B5EB08056EEB070C870E920E47EA811724
:1005C00042EA8312A7FB0201B6EB0B0164EB0004C5
:1005D0002B0D43EA0C335E1844EB1C50DA465146AF
:1005E000E7FB0201C5F313044FEA0B3343EA14534C
:1005F0004FEA0432019C43EA0603A4F10C0402947E
:10060000009CCDE900B400F0AEFA03B0BDE8F08F75
:1006100000200146F9E72DE9F04D81EA030404F0DA
:10062000004B21F0004514464FF0000A23F0004132
:1006300050EA050220D054EA01021DD0C5F30A5742
:100640000246C5F31303C1F31300C1F30A5640F485
:10065000801543F48013A7EB0608101BD64608F25A
:10066000FD3873EB050002D308F1010801E0921890
:100670005B41B8F1000F03DA00200146BDE8F08DC0
:1006800000204FF48011064684460EE0171B73EBE2
:10069000050705D3121B63EB050306434CEA010C67
:1006A00049084FEA300092185B4150EA0107EDD14A
:1006B00052EA030012D082EA040083EA05010843EB
:1006C00005D0101BAB4106D20122002306E0002218
:1006D0004FF0004302E06FF0010253101AEB0600E6
:1006E0004CEB085110EB0A0041EB0B01BDE8F04D5B
:1006F00000F02ABAC1F30A52C1F3130140F2FF33EA
:1007000041F480119A4202DA00200146704740F21B
:1007100033439A42A2F2334202DC5242FFF703BE55
:10072000FFF7F2BD30B5041E71F1000404DB4FF099
:100730000044404264EB0101141E73F1000405DB28
:100740001C464FF00043524263EB0403994208BF3A
:10075000904230BD064C074D06E0E06840F00103D2
:1007600094E8070098471034AC42F6D3FFF716FD23
:100770009C370008BC370008202A06DBCB17203A3C
:1007800041FA02F043EAE07306E041FA02F3D04096
:10079000C2F120029140084319467047C0B24FF49D
:1007A000F05100F02FBA00002DE9FF4F087883B018
:1007B0009946FF2805D0491C2D2804D0002400208C
:1007C00008E000200BE00124F9E700EB800003EBD8
:1007D0004000491C0B78FF2BF7D104B140420023A5
:1007E0000293147819461D462D2C01D02B2C04D1D0
:1007F000521C2D2C13D000240294AA461478FF2CEE
:100800000FD00A25A3FB057801FB05814FF0000CF2
:1008100003FB0C11521CE3194AEB0101EEE7012422
:10082000EAE7814453EA010002D019F5C87F06DAED
:1008300003980021C0E9001107B0BDE8F08F002542
:10084000AE4E2F46DFF8B882184600F0EFF9CDE93A
:100850000001B9F1000002DAC9F1000400E0044629
:100860000023A74A1AEB030B42EB045A12E0E007FD
:1008700007D02A46334638464146FFF75AFE074618
:1008800088462A46334610461946FFF752FE05466B
:100890000E466410002CEAD1DDE90001B9F1000F29
:1008A0005A46534606DAFFF7B6FE3A464346FFF786
:1008B000B2FE05E0FFF73DFE3A464346FFF739FE3C
:1008C000029A0AB181F00041039AC2E90001B3E73C
:1008D0002DE9FF4F1F468DB0D7E901464FF0FF3895
:1008E0002E2045464FF000090B90B9696D1C0E98FB
:1008F0008847396A824688470028F6D1BAF1FF3F17
:100900000AD024F4D064002E11DDBAF12B0F08D0E8
:10091000BAF12D0F0BD102E0404611B08DE744F43F
:100920008064B9696D1C0E9888478246761E6946B8
:10093000600501D52D2000E02B208DF8000001F18D
:10094000010B0DF1200809E0B9696D1C0E9888476C
:1009500082460F9844F40074761E0560002E02DD76
:10096000BAF1300FF0D00B998A453ED144F08004A3
:1009700006E00F99681CA9F1010944F400740860AD
:10098000B9696D1C761E0E98884782463028F0D0D3
:100990002BE00B998A4505D1200603D444F080044E
:1009A000761E18E0504601F031FA08B30DF113013C
:1009B000761E44F400748B4508D2AAF130000BF87F
:1009C000010B200607D5A9F1010003E0200602D49F
:1009D00009F101008146A00502D50F99681C086045
:1009E000B9696D1C0E9888478246002ED1DC53E011
:1009F000002E51DDBAF1650F02D0BAF1450F4BD18F
:100A0000A00549D5B9696D1C24F44074761E0E9872
:100A100088478246002E0CDD2B2804D0BAF12D0F1A
:100A200007D144F48074B9696D1C0E9888478246DA
:100A3000761EE00501D52D2100E02B2108F8011BD1
:100A4000CDF82C8021E00DF12901761E44F40074CC
:100A500088450CD2AAF1300010F0FF0088F80000A1
:100A600002D10B99884509D908F1010806E0E00593
:100A700001D5244801E042F20F708146B9696D1C2E
:100A80000E98884782460F980560002E04DD504678
:100A900001F0BCF90028D6D1F9690E988847FF20EB
:100AA0008BF8000088F800000020069007904B4665
:100AB0006A4608A906A8FFF777FEA00502D46FF0E2
:100AC00001002AE714F0240F0AD0E00714D1DDE971
:100AD00006123868031D3B600068C0E900120BE095
:100AE000DDE9060100F0AEF80146E00704D1386800
:100AF000021D3A600068016028460EE700001440BD
:100B00000000F03FF1D8FFFF426842B1016811F8E0
:100B1000013B23B1521EC0E9001218467047012163
:100B2000C160881E704742685AB1C368016843B902
:100B300083688B4205D0491E521CC0E90012002078
:100B400070474FF0FF30704710B5141E73F100046A
:100B500008DA401C41F1000192185B411A4301D1AF
:100B600020F0010010BD2DE9F04D92469B4611B1D9
:100B7000B1FA81F202E0B0FA80F220329046FFF73B
:100B8000C3FB04460F4640EA0A0041EA0B01534604
:100B90005A46084313D0114653EA010019D0C8F150
:100BA00040025046FFF7BFFB05460E4650465946E9
:100BB0004246FFF7A9FB084305D0012004E0204688
:100BC0003946BDE8F08D0020054346EAE0762C4327
:100BD00037430A986305E40AA0EB08000022FD0AE7
:100BE00044EA47540A3002D500200146E9E70105EE
:100BF00010196941DDE9084500196941BDE8F04D6A
:100C0000A2E700007F2801D9002208E0064A02EB93
:100C10005002C007127800D1120902F00F02012021
:100C20009040084070470000DC3500080EB540F2E7
:100C3000334202920022CDE900221346FFF793FFD0
:100C400003B000BD01F0004330B421F0004150EA90
:100C5000010206D00A0DA2F56072C1F31301002A49
:100C600002DC30BC00207047440F44EAC104C100DC
:100C7000E01830BC00EBC250AFF300800029A8BFE1
:100C80007047401C490008BF20F00100704710B4B5
:100C9000B0FA80FC00FA0CF050EA010404BF10BC6A
:100CA000704749B1CCF1200421FA04F411FA0CF197
:100CB00018BF012121430843A3EB0C01CB1D4FEAD0
:100CC00000614FEA102042BF002010BC704700EBCB
:100CD000C35010440029A4BF10BC7047401C4900F9
:100CE00008BF20F0010010BC7047FEE7704700000D
:100CF0002DE9F84FDFF860B100224FF001084FF006
:100D0000030A4FF00F090BF1040E00BF0B6808FA3D
:100D100002F42340A3426ED14D68022D01D0122D62
:100D20000ED1D50800EB850CDCF820505607F70EE5
:100D300009FA07F6B5430E69BE402E43CCF8206091
:100D4000066855000F790AFA05FC07F0030726EA42
:100D50000C06AF40374307604E68012E05D0022EC7
:100D600003D0112E01D0122E0ED18668CF6826EA4C
:100D70000C06AF40374387604668A6430C79C4F33E
:100D80000014944034434460C6688C6826EA0C061C
:100D9000AC403443C4604C68E40056D52F4C256801
:100DA00045F480452560246822F0030504F480445E
:100DB00000942B4C2E19D6F8084895072F0F09FAE6
:100DC00007F5AC43274DA84201D1002515E0264D7B
:100DD000A84201D1012510E0244DA84201D10225ED
:100DE0000BE0234DA84201D1032506E0214DA84286
:100DF00002D1042501E028E00725BD402543C6F8BF
:100E00000858DBF800405D464E689C43F60300D569
:100E10001C432C60DEF8004075464E689C43B603C8
:100E200000D51C432C600C4D08352C684E689C4343
:100E3000F60200D51C432C60074D0C352C684E681B
:100E40009C43B60200D51C432C60521C102AFFF4B0
:100E50005DAFBDE8F88F0000003C0140443802401F
:100E6000003001400000024000040240000802403F
:100E7000000C02400010024042694A404261704743
:100E80000AB1816170470904FBE7000001488068EE
:100E9000704700009400002001480078704700006F
:100EA00094000020024881680278114481607047F4
:100EB000940000200B4810B5016841F400710160F6
:100EC000016841F480610160016841F48071016052
:100ED000032000F063F8002000F006F800F024F88A
:100EE000002010BD003C024070B50D4D04464FF48B
:100EF0007A712878B1FBF0F00A490968B1FBF0F08B
:100F000000F0D4FA48B9102C07D200222146501E16
:100F100000F024F800206C6070BD012070BD00005E
:100F200094000020A00000200B4882B0016841F42A
:100F300080410160006800F4804000900648001F76
:100F4000016841F080510160006800F0805000901D
:100F5000072002B000F022B844380240F0B40E4B33
:100F60001B680C46C3F30223C3F10705042D00D907
:100F70000425191D072901D2002300E0DB1E0126EC
:100F800006FA05F1491E214099409E40761E164002
:100F90003143F0BC00F02EBC0CED00E0064900F03F
:100FA000070208684FF6FF03184040EA0220034A90
:100FB00010430860704700000CED00E00000FA05E7
:100FC0002DE9F0470E46050065D0DFF81481D8F80A
:100FD0000000F7B200F00F00B04207D288F80070AE
:100FE000D8F8000000F00F00B04254D128683D4C02
:100FF000810712D5400703D5206840F4E0502060F7
:101000002878000703D5206840F4604020602068FD
:10101000A96820F0F000084320602878C0072DD090
:10102000304968680839012812D0022813D00328F3
:1010300011D00968890700292DDA216821F0030100
:1010400001432160FFF722FF814641F2883A0EE01A
:1010500009688903EFE709688901ECE7FFF716FFE4
:10106000A0EB0901514502D90320BDE8F0872068B3
:10107000696800F00C00B0EB810FEFD1D8F80010D8
:10108000404601F00F01B14207D90770006800F037
:101090000F00B04201D00120E7E72878400705D5CE
:1010A0002068E96820F4E0500843206028780007B1
:1010B00006D52068296920F4604040EAC10020601C
:1010C00000F036F82168084AC1F30311515CC840AA
:1010D000064908600020FFF707FF0020C5E7000071
:1010E000003C024008380240C4350008A00000203F
:1010F0000448054900680968044AC1F38221515C2B
:10110000C8407047A000002008380240D4350008CD
:101110000448054900680968044AC1F34231515C3A
:10112000C8407047A000002008380240D4350008AD
:10113000154810B5006810F00C02144813D0411087
:10114000042A0FD0082A0ED10F4C241F22682368CE
:1011500002F03F025B0207D52068C0F38810A0FBB5
:10116000010106E0084610BD2168C1F38811A1FB0A
:1011700000010023FFF72AF82168C1F30141491C4F
:101180004900B0FBF1F010BD083802400024F40023
:101190002DE9F84F050076D02878DFF8F8B2BE4C7C
:1011A000C00749D0DBF800105846C1F3810101297E
:1011B00008D00068C0F3810002280AD1201D006811
:1011C000400206D52068800336D568680028E2D042
:1011D00032E06868B0F5803F10D0B0F5A02F2068ED
:1011E00010D020F480302060206820F4802020601F
:1011F0006868A0B1FFF74AFE06460CE0206840F49C
:101200008030F4E740F480202060F7E7FFF73EFEEF
:10121000801B642873D820688003F7D50CE0FFF7A3
:1012200035FE064605E000BFFFF730FE801B642850
:10123000F0D820688003F7D42878DFF86082800730
:101240004FF000093ED5DBF80010584611F00C0FA6
:1012500009D00068C0F3810002280BD18D48001F1F
:101260000068400206D42068800715D5E868012888
:1012700009D111E0E868B8B10120C8F80000FFF713
:1012800005FE064605E002E1FFF700FE801B02288E
:10129000C0D820688007F7D52068296920F0F800B9
:1012A00040EAC10020600DE0C8F80090FFF7EEFDB5
:1012B000064604E0FFF7EAFD801B02281FD82068DD
:1012C0008007F7D42878000722D5724E74486969E0
:1012D0006C3671B101210160FFF7D8FD074604E0CB
:1012E000FFF7D4FDC01B022809D830688007F7D566
:1012F0000EE0C0F80090FFF7C9FD074605E083E067
:10130000FFF7C4FDC01B02287ED830688007F7D4E1
:101310002878400768D5DFF87CA100270AF1380A51
:10132000DAF80000C0000BD4DAF8001041F0805168
:10133000CAF80010DAF80000012700F08050009091
:10134000584E3068C00510D4306840F4807030606A
:10135000FFF79CFD009005E0FFF798FD0099401A0B
:10136000022851D83068C005F6D54A4EA8686836BC
:1013700001280FD00528306810D020F0010030601F
:10138000306820F004003060A868B8B1FFF77EFD37
:1013900000900FE0306840F00100F4E740F00400F6
:1013A0003060F7E7FFF772FD0099411A41F288308B
:1013B000814264D830688007F4D50EE0FFF766FDFF
:1013C000009007E0FFF762FD0099411A41F2883072
:1013D000814254D830688007F4D42FB1DAF8001075
:1013E00021F08051CAF80010A869C0B3DBF80010E2
:1013F000C1F3810102294AD00228484607D0C8F823
:101400006000FFF743FD00E039E005463AE047465B
:10141000C8F86000FFF73AFD064604E0FFF736FD26
:10142000801B02282BD820688001F7D4D5E907015A
:101430000843A96A1C4A490802EB01416A6A41EA69
:101440008211084395F82C1040EA01611148001FF1
:10145000016001203866FFF719FD054605E014E03C
:10146000FFF714FD401B022809D820688001F7D53A
:101470000BE000BFFFF70AFD401B022802D9032042
:10148000BDE8F88F20688001F4D40020F8E701203F
:10149000F6E70000083802400038024000004742EA
:1014A000800E4742007000400000FFFF10B5401E54
:1014B000B0F1807F01D3012010BD4FF0E0246061C6
:1014C0000F21601700F096F90020A061072020612D
:1014D000002010BD70B5040004D094F83900002538
:1014E00010B106E0012070BD84F83850204600F0AD
:1014F00023F8242084F839002068C16821F40051C1
:10150000C160204600F0F8F92068016921F490419B
:1015100001612068416921F02A0141612068C168A8
:1015200041F40051C160E563202084F8390084F85B
:101530003A00002070BD000070B586B0044614214A
:101540006846FEF78DFE234E2368002222490224BE
:1015500007252248B3421CD11F4A1432136843F0B6
:1015600010031360126802F0100205920A6842F03C
:1015700001020A60096801F0010105914FF4C061A0
:10158000CDE90014012102910321CDE9031569463B
:101590001BE0134EB3421AD10F4B10331E6846F4B2
:1015A00000361E601B6803F4003305930B6843F09C
:1015B00001030B60096801F0010105910C21009104
:1015C000CDE90142CDE903256946FFF791FB06B05D
:1015D00070BD0000001001403038024000000240A1
:1015E000004400402DE9F843044690F83A0099463B
:1015F00016460D4620284FD195B18EB194F838008B
:10160000012849D0012084F838000027E763222010
:1016100084F83A00FFF73AFCA6858046E68531E07B
:101620000120BDE8F883E08D401EE085A0684346B8
:10163000B0F5805F4FF000024FF020012046CDF85A
:10164000009004D000F0AEFA98B10320E9E700F072
:10165000A9FA0028F9D1206900282068406803D041
:10166000C1B225F8011B0DE0C0F3080125F8021BEB
:1016700008E0206900282068406801D000F07F0061
:1016800005F8010BE08D0028CDD1202084F83A0028
:1016900084F838700020C4E70220C2E72DE9F8433F
:1016A000044690F839001F4616460D46202850D1B2
:1016B000A5B19EB194F8380001284AD0012084F8E1
:1016C00038004FF00008C4F83C80212084F839002D
:1016D000FFF7DCFBA6848146E68426E00120BDE816
:1016E000F883E08C401EE084A0684B46B0F5805F34
:1016F0004FF000024FF080012046009703D000F029
:1017000051FAE8B90DE000F04DFAC8B9288821680F
:10171000C0F308004860206908B16D1C05E0AD1CED
:1017200003E0216815F8010B4860E08C0028D8D14F
:101730004B46002240212046009700F033FA08B1C2
:101740000320CCE7202084F8390084F8388000207A
:10175000C5E70220C3E7FEE730B587B0142168462D
:10176000FEF77EFD1E480024016841F0040101607F
:10177000016801F004010591016841F080010160F8
:10178000016801F080010591016841F001010160EB
:10179000016801F001010591016841F00201016059
:1017A0000068104D00F0020005900022202128461C
:1017B000FFF766FB4FF4005000900B48CDE90104A1
:1017C00069460A48FFF794FA202000900120CDE9ED
:1017D0000104694628460394FFF78AFA07B030BD32
:1017E0003038024000000240000021100008024092
:1017F000FEE770470907090E002806DA00F00F001F
:1018000000F1E02080F8141D704700F1E02080F81E
:101810000014704770477047FFF744BB30B593B072
:1018200030216846FEF71CFD14210CA8FEF718FDB8
:101830001A480024016841F080510160006800F0FE
:10184000805011901648016821F4404141F4004154
:1018500001600068022500F44040119001200390CF
:101860001020009506950490CDE907404FF4A8702C
:10187000099004200A9007200B906846FFF788FC27
:101880000F20CDE90C05E802CDE90E4002210CA89D
:101890001094FFF795FB13B030BD000040380240B4
:1018A000007000401048016841F4700101600F4869
:1018B000016841F0010101600C4A00210832116009
:1018C00002680B4B1A400260031D0A4A1A60026844
:1018D00022F48022026005480C300160024958065B
:1018E000803908607047000088ED00E00038024051
:1018F000FFFFF6FE103000242DE9F0410446006899
:10190000016921F44052E168114301612168C8680E
:1019100049F20C6290432369A268E5691A4363693E
:101920002B431A430243CA602168486920F440727D
:10193000A06910434861E1696425B1F5004F9748FB
:10194000974A21684FF032083FD0914201D081423E
:101950007CD1FFF7DDFB00EBC00101EB00106168FB
:101960008900B0FBF1F6FFF7D3FB00EBC00101EB00
:10197000001061688900B0FBF1F0B0FBF5F06FF08A
:101980001801484306EB800108EB0110B0FBF5F0AD
:1019900000F0F006FFF7BCFB00EBC00101EB00100C
:1019A00061688900B0FBF1F0B0FBF5F006EB0016C2
:1019B000FFF7AEFB00EBC00101EB0010616889008E
:1019C000B0FBF1F7FFF7A4FBD2E0914201D08142D6
:1019D0003DD1FFF79DFB00EBC00101EB00106168FA
:1019E0004900B0FBF1F0B0FBF5F00601FFF790FB0A
:1019F00000EBC00101EB001061684900B0FBF1F79A
:101A0000FFF786FB00EBC00101EB001061684900A5
:101A1000B0FBF1F0B0FBF5F06FF01801484307EBB5
:101A2000800108EBC100B0FBF5F000F0F80006EB18
:101A30004006FFF76DFB00EBC00101EB0010616891
:101A40004900B0FBF1F7FFF763FB3CE055E0FFF71F
:101A50004FFB00EBC00101EB001061684900B0FBD7
:101A6000F1F0B0FBF5F00601FFF742FB00EBC0011F
:101A700001EB001061684900B0FBF1F7FFF738FB9C
:101A800000EBC00101EB001061684900B0FBF1F010
:101A9000B0FBF5F06FF01801484307EB800108EB4D
:101AA000C100B0FBF5F000F0F80006EB4006FFF7D0
:101AB0001FFB00EBC00101EB001061684900B0FBA7
:101AC000F1F7FFF715FB00EBC00101EB00106168B7
:101AD0004900B0FBF1F0B0FBF5F06FF0180148439E
:101AE00007EB800108EBC100B0FBF5F000F0070048
:101AF000216830448860BDE8F081FFF7F9FA00EB17
:101B0000C00101EB001061688900B0FBF1F6FFF73E
:101B1000EFFA00EBC00101EB001061688900B0FB37
:101B2000F1F0B0FBF5F06FF01801484306EB8001CF
:101B300008EB0110B0FBF5F000F0F006FFF7D8FA63
:101B400000EBC00101EB001061688900B0FBF1F00F
:101B5000B0FBF5F006EB0016FFF7CAFA00EBC00188
:101B600001EB001061688900B0FBF1F7FFF7C0FAE4
:101B700000EBC00101EB001061688900B0FBF1F0DF
:101B8000B0FBF5F06FF01801484307EB800108EB5C
:101B90000110B0FBF5F000F00F00A9E700140140C0
:101BA000001001402DE9F041984617460E460446C4
:101BB000069D1DE0681C1BD02DB1FFF767F9A0EB57
:101BC0000800A84214D92068C16821F4D071C1600E
:101BD0002068416921F001014161202084F8390029
:101BE00084F83A00002084F838000320BDE8F08132
:101BF0002068006836EA000004D00020B842D9D03E
:101C00000020F3E70120F9E7FEE700000FB41CB560
:101C10000246002007AC00290BD0491ECDE9002167
:101C2000054B6A462146069800F0F8F8009A002114
:101C300011701CBC5DF814FB4B250008000000006F
:101C400000B583B09FED060B0A4601468DED000BF3
:101C50006846FEF794FB9DED000B03B000BD00004D
:101C6000000000000000000002E008C8121F08C1C8
:101C7000002AFAD170477047002001E001C1121F0D
:101C8000002AFBD1704700002DE9FF5F82B00021E0
:101C9000DDE90430020DDDF840B0034318D044F60E
:101CA0001050A2F2FF3242431514119801281FD0A0
:101CB000A5EB0B00401C5FEA000A4FF000064E4FF8
:101CC000DFF83891B046504615D5CAF1000413E04C
:101CD000119801244AA3012801D16FEA0B0102984F
:101CE000119AC0E90031C0E9024206B0BDE8F09F98
:101CF000CBF10000DFE704460021404A491842EBDF
:101D00000450CDE9001012E0E00707D032463B4610
:101D100040464946FEF70DFC8046894632463B4622
:101D200010461946FEF705FC06460F466410002CC7
:101D3000EAD1DDE90401DDE90023BAF1000F06DA9A
:101D4000FEF7F7FB42464B46FEF7F3FB05E0FEF7D6
:101D500062FC42464B46FEF75EFC04460E460022FD
:101D6000284BFEF7DFFC03D84FF0FF30014607E0B9
:101D70000022254B20463146FEF734FBFEF7BAFC25
:101D8000102409E0002C0ADB0A220023FEF71EFAC9
:101D9000039B30321A55641E50EA0102F2D1641CD2
:101DA000039AC4F111031444119A012A03D00122A9
:101DB00008430DD10AE0084304D000204FF0110B76
:101DC000119072E7A3EB0B056D1E0DE05B4504DD82
:101DD0004FF0000205F1010504E003DA4FF00002C4
:101DE000A5F10105002AECD002981199C0E9023151
:101DF000C0E9004579E70000000014400000F03F12
:101E0000300000000000F0430000E03F30380A28B6
:101E100001D2012070470020704700002DE9FF4FDC
:101E200095B09B468946064600250FE2252877D1C6
:101E300000242746F84A0121059400E0044316F8DF
:101E4000013F203B01FA03F01042F7D130782A28F5
:101E500011D06FF02F033078A0F13002092A16D884
:101E6000059A44F0020402EB820203EB42021044A2
:101E7000761C0590EFE759F8042B0592002A03DA47
:101E8000504244F40054059044F00204761C30782B
:101E90002E2816D116F8010F44F004042A280DD07C
:101EA0006FF02F023078A0F13003092B09D807EB2F
:101EB000870302EB4303C718761CF3E759F8047B4A
:101EC000761C30786C280FD006DC4C2817D0682898
:101ED0000DD06A2814D104E0742810D07A280FD1CC
:101EE0000DE044F400140AE044F4801401E044F4EA
:101EF00040147278824202D104F58014761C761C5C
:101F0000307866280BD013DC582877D009DC0028FD
:101F100075D04528F6D04628F4D047281AD19DE13F
:101F200018E0632835D0642879D0652812D195E16E
:101F3000702873D008DC6728F1D069286FD06E282C
:101F40000DD06F2806D1B5E073282CD0752875D038
:101F5000782874D05A46179990476D1C75E1C4F3E0
:101F60000250022809D003280DD0D9F80010042807
:101F70000DD00D6009F1040967E1D9F80010EA17E6
:101F8000C1E90052F6E7D9F800100D80F2E70D70B4
:101F9000F0E719F8041B8DF8001000208DF80100FF
:101FA000EA46012003E059F804AB4FF0FF30610727
:101FB0004FF0000102D40DE008F101018846B9425A
:101FC0000FDA8045F8DB1AF808100029F4D108E090
:101FD00008F1010188468142FADB1AF8081000294D
:101FE000F6D105985B46A0EB080721463846179ABC
:101FF00000F094FA284400EB080507E04DE029E1E1
:102000000DE01AF8010B5A4617999047B8F10108EC
:10201000F7D25B4621463846179A13E142E00A227E
:102020000092C4F302524FF0000A022A08D059F875
:1020300004CB032A4FEAEC710AD00DE029E02AE034
:1020400009F1070121F00702F2E802C1914609E017
:102050000FFA8CFC4FEAEC71042A03D14FFA8CFC86
:102060004FEAEC71002907DA0A460021DCF1000C86
:1020700061EB02012D2202E0220504D52B228DF80E
:102080000420012203E0E20701D02022F7E7904676
:1020900059E00A2102E010220DE010214FF0000A61
:1020A00000910BE010224FF0000A44F004040827CE
:1020B000009203E008224FF0000A0092C4F302529B
:1020C000022A05D059F804CB0021032A08D009E0E0
:1020D00009F1070121F00702F2E802C1914605E08B
:1020E0001FFA8CFC042A01D10CF0FF0C4FF0000801
:1020F000220728D5702806D0009B83F0100353EAEE
:102100000A0305D00EE040228DF80420012208E0E9
:102110005CEA010206D030228DF804208DF805001B
:1021200002229046009B83F0080353EA0A030AD177
:102130005CEA010201D1620705D530228DF8042046
:102140004FF001087F1E582804D034A003900EA839
:1021500002900DE036A0F9E753466046009AFEF77C
:1021600035F884460398825C0298401E0290027003
:102170005CEA0100F0D1029806A9081A00F1200AD1
:10218000600702D524F4803400E00127574502DDC2
:10219000A7EB0A0000E0002000EB0A010090059880
:1021A0004144401A0590E00306D45B462146179A45
:1021B000059800F0B3F90544002706E001A85A4647
:1021C000C05D179990476D1C7F1C4745F6DBE00307
:1021D0000CD55B462146179A059800F09FF90544F7
:1021E00004E030205A46179990476D1C0099481E0C
:1021F00000900029F5DC08E0029802995A46007820
:10220000491C0291179990476D1CBAF10001AAF17F
:10221000010AF1DC65E100000928010030313233A8
:102220003435363738396162636465660000000012
:1022300030313233343536373839414243444546FC
:102240000000000000F058F90544761C30780028A2
:102250007FF4ECAD19B02846BDE8F08F620700D4DA
:10226000062709F1070222F0070CFCE80223E146E9
:1022700003F000485FEA080C02D00FF2702C0DE06A
:102280005FEA045C02D50FF2682C07E05FEAC47CC9
:1022900002D00FF2602C01E0AFF2700C4FF0FF386B
:1022A00023F00043CDF850C065280CD006DC45284B
:1022B00009D046281DD047283DD13DE0662818D0DA
:1022C00067287ED138E00021112F01DB112000E0CA
:1022D000781CCDE9000106A90EA8FFF7D5FCDDE9C1
:1022E0000F010E9A03910021009207F1010A049157
:1022F0004DE04FF000400097CDE9011006A90EA86F
:10230000FFF7C2FCDDE90F0203920E9B1199002238
:10231000DDF80CA00093049211B9791C00EB010ABE
:10232000B7EB0A0004D4C0F1FF3007F1010A0490B2
:10233000AAEB0700019044E0012F00DA01270021F9
:10234000112F01DD112000E03846CDE9000106A97A
:102350000EA8FFF799FCDDE90F010E9A0391002109
:1023600004910092BA4621070CD40399514500DA32
:102370008A46BAF1010F05DD009AAAF10101515C0C
:10238000302908D0B84202DA10F1040F06DA012130
:10239000CDE9011015E0AAF10101E9E7002805DC0B
:1023A000049901440491AAEB000102E0411C51454B
:1023B00000DD8A460499401A401C01904FF000400D
:1023C0000290200704D40198504501DBCDF8048029
:1023D00000208DF84F0002980DF14F07B0F1004F2B
:1023E00025D02B200E9002984FF0020800280CDA1E
:1023F000404202902D200E9007E00A210298FDF73E
:102400006DFF3031029007F8011DB8F10001A8F10D
:102410000108F2DC02980028EFD1791E0E980870AE
:10242000307800F0200040F0450007F8020D12A8B7
:10243000C01B00F107081498007800B1012000EBE0
:102440000A01019801EBE07105984144401A401ED1
:102450000590E00306D45B462146179A059800F0E4
:102460005DF805441498007818B15A4617999047BA
:102470006D1CE00324D55B462146179A059800F0B1
:102480004DF805441CE00498002807DBDDE9030152
:10249000884203DD0098405C179901E017993020CD
:1024A0005A469047049805F10105401C0490019894
:1024B000401E019004D12E205A46179990476D1C5A
:1024C000BAF10001AAF1010ADDDC05E017F8010B01
:1024D0005A46179990476D1CB8F10001A8F1010800
:1024E000F4DC5B462146179A0598ABE62D00000008
:1024F0002B000000200000002DE9F04104460025DB
:102500001E461746880404D405E039462020B0470B
:102510006D1C641EF9D52846BDE8F0812DE9F04117
:10252000044600251E469046C80301D5302700E02A
:102530002027880404D505E041463846B0476D1C85
:10254000641EF9D52846BDE8F0814A68002A06D005
:102550000A68531C0B6010704868401E4860704742
:102560002DE9F0411C460346DDE907651A48DDF810
:1025700024C0069FC0E90634078006624580C0E992
:10258000091213460022C0F82CC01146134800F06F
:1025900031FA1148124B30300021C1601A680261D3
:1025A00000F11402C2E903102830C0E903121860D8
:1025B0003946204600F0D0F82946304600F0CCF8E5
:1025C000002239462046FEF75BFC29463046BDE82E
:1025D000F0410022FEF754BC0000002059350008ED
:1025E0002401002008B5094801231A46694680697C
:1025F000FEF7F8FF20B99DF80010054800F0E0F95B
:1026000000F008F800F024F808BD000000000020E9
:102610002401002070B50D4C606880B1FEF736FCD7
:102620000546A068854209D32188E069FEF724FCAD
:10263000FEF732FC616801FB0050A06070BD21888C
:10264000E069BDE870400022FEF71ABC00000020DF
:102650003EB5FEF71BFC164C0546E068002824D06A
:102660002069854221D3606948B160681149CDE98C
:102670000050D4E90923104800F0C4F80BE0E26AE6
:10268000A2B1A16A60680091CDE901500B490A48E6
:10269000636A00F0B7F8606940B100206061FEF73E
:1026A000FBFBE16801FB005020613EBD0120F5E726
:1026B000000000204036000824010020B436000845
:1026C00010B586B00DF1080C08A40BA30BA211A144
:1026D0008CE81E0011A213A1CDE9001213A216A1CD
:1026E000436900F0FDF906B010BD000066343031DA
:1026F00074657374000000006170700046656220AC
:10270000323020323031392031373A32393A3037AD
:102710000000000066775F696400000073746D3329
:1027200032000000617263680000000066775F7627
:10273000657273696F6E00007B25513A25512C201C
:1027400025513A25512C2025513A25512C2025512F
:102750003A25517D00000000F0B5DFF890C0244F0D
:10276000244E254D254C264A002387B0604507D1CD
:10277000146844F001041460126802F001021EE0C3
:10278000B84208D1166846F002061660166806F0D0
:10279000020605960AE0B04208D1156845F0040526
:1027A0001560156805F0040505950AE0A84208D1F2
:1027B000146844F008041460126802F008020592DC
:1027C00009E0A04207D1146844F0100414601268B4
:1027D00002F01002F3E700910121CDE901136946EF
:1027E0000393FEF785FA07B0F0BD00000000024039
:1027F0000004024000080240000C024000100240A9
:10280000303802400FB4142230B587B004460A2095
:102810008DF814000A496846FDF709FD01940CAAD9
:1028200068460B9900F0A4FDD4E901230546012177
:1028300005A8984707B0284630BC5DF814FB000097
:102840009C35000810B5029C4360C0E9021205499E
:10285000CC6002680A6101601431C86002680A61D4
:10286000016010BD6C0000202DE9F0419CB00026F5
:1028700090460F46044619961422334907A81A9623
:10288000FDF7D5FC182101A80894FDF7E9FC07A87D
:1028900005901AA8009019AB2CA24146384600F0CA
:1028A00007FB199860B11A98002809DDE368002B2E
:1028B00003D041463846626898471CB0BDE8F081B5
:1028C000322000900CAB24A24146384600F00EFCAA
:1028D000051E07DC3B46424622A12046FFF792FF39
:1028E0002661EAE704A8009003AB29A241463846D6
:1028F00000F0DEFA02A8009001AB27A2414638465C
:1029000000F0D6FA246809E06068A84205D12A469A
:102910000CA92068FDF7B6FC48B12469002CF3D15E
:1029200020A325A2254901A800F09EF8C5E701983B
:1029300008B908A00190E0680690A16801A888473E
:10294000002CEDD0B9E70000B0350008242E7265E8
:1029500073756C7400000000242E6D6574686F64DC
:10296000000000007B226572726F72223A7B226344
:102970006F6465223A2D33323730302C226D657307
:1029800073616765223A252E2A517D7D0000000083
:10299000242E696400000000242E706172616D7342
:1029A000000000006D6574686F64206E6F742066AF
:1029B0006F756E640000000025510000A780FFFFC6
:1029C00070B50446006900250A46FF2800DD256130
:1029D00004F114010A2A05D0206942542069401CE0
:1029E000206170BD2269012A02DD2046FFF73CFF0D
:1029F000256170BD08B5009313460A46014602489A
:102A0000FFF720FF08BD0000240100202DE9F04160
:102A100007460868021D0A6006680025346812E04F
:102A20003068A04205D0012209A1384600F01CFC04
:102A300005442068FDF71FFC02463846216800F077
:102A400057FC24690544002CEAD12846BDE8F081F2
:102A50002C00000030B40D46416814462846D1E9E8
:102A60000123214630BC18470FB438B5C26804466C
:102A7000002A15D0009107AD0BA1A368206900F0D2
:102A80006DFC0699206919B12A4600F071FC03E03B
:102A900010A211A100F062FC10A1206900F05EFC00
:102AA00038BC5DF814FB00007B226964223A252EB5
:102AB0002A732C226572726F72223A7B22636F64D2
:102AC00065223A25642C226D657373616765223A2D
:102AD0000000000022220000257300007D7D0A0016
:102AE0000FB470B5C2680446002A14D006AD0BA11D
:102AF000A368206900F032FC0599206919B12A46C3
:102B000000F036FC03E00BA20CA100F027FC0CA1A6
:102B1000206900F023FC70BC5DF814FB7B22696423
:102B2000223A252E2A732C22726573756C74223A10
:102B3000000000006E756C6C000000002573000042
:102B40007D0A000010B504460023D4E9000109A263
:102B500000F0D4F908B1012200E0002207484188C2
:102B6000006AFEF78DF92046BDE810400021FFF70E
:102B7000B7BF0000242E6F6E000000000000002090
:102B800010B5064A04465188106AFEF775F92046CA
:102B9000BDE810400021FFF7A3BF000000000020A7
:102BA0001FB5FEF787F9FEF739FEFEF7D5FD184889
:102BB00016494FF4E13500240160C0E901540C26A8
:102BC000C460C0E904468461C461FEF783FC104818
:102BD000104940380160C0E90154C460C0E90446AE
:102BE0008461C461FEF776FC0BA140200D4BCDE95A
:102BF000020120220648CDE900230BA20CA1403897
:102C0000FFF7AEFCFFF7EEFCFCE7000000440040DD
:102C1000E4000020001001402F6170702F746F706D
:102C20006963000000000240312E302E30000000A9
:102C30006634303174657374000000002DE9F04F84
:102C4000814689B000201F4616468A4607900446F2
:102C50006FF0010B0690F4E019F80450A0462846E6
:102C6000202D74D0092DFCD00A2DFAD00D2DF8D0CE
:102C7000079931B101296BD002296AD0032939D1D2
:102C8000B7E07B2D1FD05B2D27D05D2D33D0742D69
:102C900042D06E2D4DD0662D5CD02D2D04D000BFBE
:102CA000A5F13000092863D80020009009EB04004A
:102CB00005466946FEF7C4FF009810B1401B044466
:102CC000641E0C2063E00699142909DA069A01A90A
:102CD00088540699491C06919CE00699142903DB47
:102CE000584609B0BDE8F08F069A01A988540699A4
:102CF000491C06919CE0069900295ADD069A01A913
:102D0000114411F8011C5B2953D16AE07EB3012301
:102D100022464946009743E0E01C5045C0DA09EBE3
:102D2000040004224AA1FDF7ADFA002841D10D208C
:102D30000BE0E01C5045B3DA09EB0400042246A185
:102D4000FDF7A0FA0028ABD10F20E41C1FE077E0CC
:102D50002BE04AE0201D504576DA09EB04000522FD
:102D60003FA1FDF78FFA20BB0E20241D0FE018E0D5
:102D7000222D69D1AAEB040109EB0400401C491E75
:102D800000F0F3F90028ACDB04440B20641C069926
:102D900049B936B1A4EB0803424649465B1C00978B
:102DA000B047601C9DE7032135E0222D02D07D282D
:102DB00010D049E0AAEB040109EB0400401C491EB5
:102DC00000F0D3F900288CDB044402210120641CAC
:102DD00007912DE0069A01A9114411F8011C7B29E5
:102DE00032D1511E0691DED190E73A282CD1002134
:102DF00011E00699002927DD2C2D04D05D2D0CD083
:102E00007D2D0AD020E0069A01A9114411F8011C79
:102E10007B29ECD1012107910AE0069A01A911440E
:102E200011F8011C891C81420ED1511E0691DBD084
:102E300036B1A4EB0803424649465B1C0097B047F5
:102E4000641C5445FFF608AF4FF0FF3049E700001F
:102E500074727565000000006E756C6C00000000F7
:102E600066616C736500000030B50BA40DA309B159
:102E700022460BE01A4609E0854206D111B1101B2B
:102E8000185C30BDD01A205C30BD521C1578002D66
:102E9000F2D1002030BD0000080C0A0D095C222F81
:102EA0000000000062666E72745C222F0000000059
:102EB0002DE9F0418AB014460F4680461D4628226F
:102EC0000C496846109EFDF7B2F90094CDE907560B
:102ED0002078242807D16B46074A39464046FFF739
:102EE000ADFE002803DA00200AB0BDE8F0810998A1
:102EF000C0B2F9E7743500081D2F000838B51C462C
:102F000000230093FFF7D4FF0D2802D00E2802D033
:102F100002E0012400E00024204638BD2DE9F04104
:102F20001646069C1D46626A002A12D17B2831D0C3
:102F30005B2810D02C2838D08B19A0F10B07012862
:102F40004AD07D287ED05D287FD09BE0A068401CC1
:102F5000A060BDE8F081D4E9020188421AD1D4E929
:102F60000001405C5B2815D10020206120680844E6
:102F70000021401CFEF764FE51EC100BFDF78FF9A9
:102F800060612169814205D1E068401CE0606068B1
:102F9000C01C6060D4E90001405C0028D6D1D4E9AF
:102FA00002018842D2D1A661D0E7D4E90210401CC8
:102FB0008142CED12069401C206161698842C8D11C
:102FC000D4E900100A5C00F101005D2A6060F9D1CB
:102FD000E068401CE060BCE7D4E902C2521C9445A2
:102FE00050D1D4E9002C12F80CE0BEF12E0F49D1DB
:102FF00011F806E0BEF1220F44D12E44314411F8FD
:10300000011C22293ED102EB0C0101F1010C00222E
:1030100000E0521C1CF802601EB12E2E01D05B2E67
:10302000F7D1AE1EB2422DD1581CAA1E491CFDF785
:1030300029F900288DD1E068401CE06060686D1EB1
:10304000284400E001E0606083E7A268521EA260AD
:10305000D4E900355B5D002BBDD1E3689A42BAD15B
:10306000A269521CB7D0801E6062E06910B1A269EB
:1030700011440160206A0028ADD0A169711A491C71
:10308000016066E7092FA6D2D4E902129142A2D1CB
:10309000D4E90012895C00299DD16062E06900B129
:1030A0000360206A002896D0056052E700B52DED38
:1030B000028B83B002AB0093B0EE408AF0EE608AE0
:1030C00001ABFFF7F5FE0C2807D100210198FEF7B0
:1030D000B7FDB0EE408AF0EE608A03B0B0EE480A69
:1030E000F0EE680ABDEC028B00BD00002DE9FE4F3A
:1030F0001C4602AB00930C9E01ABFFF7D9FE0B28D8
:1031000002D00020BDE8FE8F01980025029FA04656
:1031100000F1010A2C464FF0FF39BF1E18E000BF36
:103120001AF805005C280FD1691CB9420CDA0AEBC9
:10313000050000214078FFF797FE18B108F8040059
:103140006D1C03E04846DDE708F80400641C6D1CB4
:10315000BD4201DAB442E3DBB442F3DA002E02DD11
:10316000002108F804102046CCE72DE9F0410024A6
:103170000E460546671E12E0285D5C280AD1601CD9
:10318000B0420BDA281901214078FFF76DFE08B133
:10319000641C03E0285D20B1222805D0641CB442E1
:1031A000EADB3846BDE8F0812046FBE72DE9F84F21
:1031B00015468A4603688146284F012228A1984770
:1031C000064600243EE000BF1AF80420631CAB4210
:1031D00003DA0AEB0400417800E0002104F1020C5C
:1031E000AC4503DA0AEB0400807800E000200FF21F
:1031F0007408D8F80080CDF8008007EBA208920789
:10320000920E98F8008042EA21128DF80080BA5C94
:103210008DF80120AB4206DA0907890E41EAA011B8
:10322000795C8DF80210AC4504DA00F03F00385CA0
:103230008DF80300D9F800304846042269469847C3
:103240000644E41CAC42BFDBD9F8003048460122FA
:1032500003A198473044BDE8F88F000040370008CC
:103260002200000000003D3D0368184710B58CB0F7
:1032700004460A468DED000B282102A8FEF7C6FC85
:103280000246236802A9204698470CB010BD0000F2
:1032900010B586B004460AB107A200E007A20B46AB
:1032A00014216846FEF7B2FC0246236869462046B0
:1032B000984706B010BD0000256400002575000089
:1032C00010B586B004460AB107A200E007A20B467B
:1032D00014216846FEF79AFC024623686946204698
:1032E000984706B010BD0000256C6400256C750081
:1032F0002DE9F8431746884603680646012215A1C2
:103300009847044600251BE018F805000121FFF747
:10331000ABFD10F0FF008DF8000009D033680122EA
:103320000DA130469847044401226946336803E002
:10333000336808EB050101223046984704446D1CB0
:10334000BD42E1DB3368012202A1304698472044A8
:10335000BDE8F883220000005C0000000FB410B547
:1033600004AA039900F004F810BC5DF814FB0000F7
:103370002DE9F84F002590460F4683462C4608E07D
:1033800025280CD07919012258466D1CFFF76CFFD7
:103390000444785D0028F3D12046BDE8F88F6D1C09
:1033A0004FF000097E5D6C2E03D178194FF00109B2
:1033B0004678512E1DD078198246032246A1FCF78B
:1033C00061FF08B3642E2BD0752E27D0422E3AD041
:1033D000732E47D05046032240A1FCF753FF70B331
:1033E000672E4ED0662E55D0562E5FD04D2E67D00C
:1033F0006FE058F8046B3046FCF73DFF024631465B
:103400005846FFF775FF63E008F10400D8F8002084
:1034100002C880465846FFF76BFF2FE0002200E00D
:10342000012208F10400D8F800108046B9F1000F1D
:10343000584605D0FFF744FF04446D1C49E014E0F2
:10344000FFF726FF44E058F8041B09B124A600E06A
:1034500025A63046FCF70FFF024631465846FFF7D7
:1034600003FF35E058F8046BF3E708F10400D8F8DF
:10347000002002C880465846FFF7F6FE0444AD1C03
:1034800027E008F1070020F0070019A1B0EC020BBB
:10349000804607E008F1070020F0070015A1B0EC16
:1034A000020B80465846FFF7E1FE11E008F10400E8
:1034B000D8F8002002C880465846FFF777FE07E09C
:1034C0004046CDF8008004C80090694658469047B1
:1034D00004446D1C5DE700002E2A51002E2A730063
:1034E000747275650000000066616C736500000011
:1034F0002567000025660000024A03A14369FFF723
:10350000EFBA00000D2A00085B254D5D00000000A9
:1035100010B503C89FED070B08A2FFF7C7FD51ECDC
:10352000100BFCF7BCFE002803DB0A4948600020B2
:10353000886010BD000000000000F0BF242E617004
:10354000702E626C696E6B5F706572696F645F6D1F
:10355000730000000000002010B50C468AB201463E
:1035600003484FF47A738069FEF798F8204610BD3F
:10357000000000200000000001000000000000002A
:10358000000000000000000000000000FFFFFFFF3F
:10359000000000000000000000000000552A0008A4
:1035A000000000000000000000000000000000001B
:1035B000552A000800000000000000000000000084
:1035C00000000000000000000000000001020304F1
:1035D000060708090000000001020304DDDDDDDD4F
:1035E000DCBBBBDDDDDDDDDDDDDDDDDD9888888894
:1035F000888888887777777777888888855555563B
:103600006666666666666666666888888333333291
:1036100022222222222222222228888D53686164BB
:103620006F772E44656C7461000000004C45442E99
:10363000546F67676C6500004C45442E53657400F9
:103640007B226D6574686F64223A2022536861643E
:103650006F772E5265706F7274222C202270617207
:10366000616D73223A207B22617070223A207B22A6
:103670006E616D65223A2025512C20227665727389
:10368000696F6E223A2025512C2022757074696D65
:10369000655F6D73223A2025752C2022626C696E5D
:1036A0006B5F706572696F645F6D73223A20257578
:1036B0007D7D00007B226D6574686F64223A202254
:1036C0004D5154542E507562222C2022706172612B
:1036D0006D73223A207B22746F706963223A202531
:1036E000512C2022716F73223A20302C20226D65DC
:1036F0007373616765223A207B226E616D65223AA1
:103700002025512C202276657273696F6E223A2033
:1037100025512C2022757074696D655F6D73223A96
:103720002025752C2022626C696E6B5F7065726952
:103730006F645F6D73223A2025757D7D7D000000EA
:103740004142434445464748494A4B4C4D4E4F50F1
:103750005152535455565758595A616263646566BD
:103760006768696A6B6C6D6E6F7071727374757671
:103770007778797A303132333435363738392B2F00
:10378000000000005379732E476574496E666F0020
:103790005250432E4C69737400000000BC3700087F
:1037A00000000020A4000000681C00086038000829
:1037B000A400002094050000781C00080000000010
:1037C0006400000000000000C409000000000000C8
:1037D00001000000000000000000000000000000E8
:1037E0000000000000000000000000001C3600087F
:1037F0000C0000001135000800000000000000006F
:103800003836000807000000452B000800000000C3
:10381000000000002C3600080A000000812B000880
:103820000000000000000000843700080B000000CA
:10383000C1260008000000000000000090370008CA
:1038400008000000F934000800000000000000003B
:103850000100000010000000000000000024F4003F
:040000050800019559
:00000001FF
